{
  "_format": "hh-sol-artifact-1",
  "contractName": "Dask",
  "sourceName": "contracts/Dask.sol",
  "abi": [
    {
      "inputs": [
        {
          "internalType": "uint256",
          "name": "_feePercent",
          "type": "uint256"
        },
        {
          "internalType": "uint256",
          "name": "_feeBase",
          "type": "uint256"
        }
      ],
      "stateMutability": "nonpayable",
      "type": "constructor"
    },
    {
      "anonymous": false,
      "inputs": [
        {
          "indexed": false,
          "internalType": "address",
          "name": "account",
          "type": "address"
        }
      ],
      "name": "Paused",
      "type": "event"
    },
    {
      "anonymous": false,
      "inputs": [
        {
          "indexed": false,
          "internalType": "uint256",
          "name": "id",
          "type": "uint256"
        },
        {
          "indexed": false,
          "internalType": "string",
          "name": "name",
          "type": "string"
        },
        {
          "indexed": false,
          "internalType": "string",
          "name": "description",
          "type": "string"
        },
        {
          "indexed": false,
          "internalType": "uint256",
          "name": "reward",
          "type": "uint256"
        },
        {
          "indexed": false,
          "internalType": "enum Dask.Status",
          "name": "status",
          "type": "uint8"
        },
        {
          "indexed": false,
          "internalType": "address",
          "name": "owner",
          "type": "address"
        },
        {
          "indexed": false,
          "internalType": "address",
          "name": "assignee",
          "type": "address"
        },
        {
          "indexed": false,
          "internalType": "uint256",
          "name": "createdAt",
          "type": "uint256"
        },
        {
          "indexed": false,
          "internalType": "uint256",
          "name": "completedAt",
          "type": "uint256"
        },
        {
          "indexed": false,
          "internalType": "bool",
          "name": "paid",
          "type": "bool"
        }
      ],
      "name": "TaskAssigned",
      "type": "event"
    },
    {
      "anonymous": false,
      "inputs": [
        {
          "indexed": false,
          "internalType": "uint256",
          "name": "id",
          "type": "uint256"
        },
        {
          "indexed": false,
          "internalType": "string",
          "name": "name",
          "type": "string"
        },
        {
          "indexed": false,
          "internalType": "string",
          "name": "description",
          "type": "string"
        },
        {
          "indexed": false,
          "internalType": "uint256",
          "name": "reward",
          "type": "uint256"
        },
        {
          "indexed": false,
          "internalType": "enum Dask.Status",
          "name": "status",
          "type": "uint8"
        },
        {
          "indexed": false,
          "internalType": "address",
          "name": "owner",
          "type": "address"
        },
        {
          "indexed": false,
          "internalType": "address",
          "name": "assignee",
          "type": "address"
        },
        {
          "indexed": false,
          "internalType": "uint256",
          "name": "createdAt",
          "type": "uint256"
        },
        {
          "indexed": false,
          "internalType": "uint256",
          "name": "completedAt",
          "type": "uint256"
        },
        {
          "indexed": false,
          "internalType": "bool",
          "name": "paid",
          "type": "bool"
        }
      ],
      "name": "TaskCancelled",
      "type": "event"
    },
    {
      "anonymous": false,
      "inputs": [
        {
          "indexed": false,
          "internalType": "uint256",
          "name": "id",
          "type": "uint256"
        },
        {
          "indexed": false,
          "internalType": "string",
          "name": "name",
          "type": "string"
        },
        {
          "indexed": false,
          "internalType": "string",
          "name": "description",
          "type": "string"
        },
        {
          "indexed": false,
          "internalType": "uint256",
          "name": "reward",
          "type": "uint256"
        },
        {
          "indexed": false,
          "internalType": "enum Dask.Status",
          "name": "status",
          "type": "uint8"
        },
        {
          "indexed": false,
          "internalType": "address",
          "name": "owner",
          "type": "address"
        },
        {
          "indexed": false,
          "internalType": "address",
          "name": "assignee",
          "type": "address"
        },
        {
          "indexed": false,
          "internalType": "uint256",
          "name": "createdAt",
          "type": "uint256"
        },
        {
          "indexed": false,
          "internalType": "uint256",
          "name": "completedAt",
          "type": "uint256"
        },
        {
          "indexed": false,
          "internalType": "bool",
          "name": "paid",
          "type": "bool"
        }
      ],
      "name": "TaskCompleted",
      "type": "event"
    },
    {
      "anonymous": false,
      "inputs": [
        {
          "indexed": false,
          "internalType": "uint256",
          "name": "id",
          "type": "uint256"
        },
        {
          "indexed": false,
          "internalType": "string",
          "name": "name",
          "type": "string"
        },
        {
          "indexed": false,
          "internalType": "string",
          "name": "description",
          "type": "string"
        },
        {
          "indexed": false,
          "internalType": "uint256",
          "name": "reward",
          "type": "uint256"
        },
        {
          "indexed": false,
          "internalType": "enum Dask.Status",
          "name": "status",
          "type": "uint8"
        },
        {
          "indexed": false,
          "internalType": "address",
          "name": "owner",
          "type": "address"
        },
        {
          "indexed": false,
          "internalType": "address",
          "name": "assignee",
          "type": "address"
        },
        {
          "indexed": false,
          "internalType": "uint256",
          "name": "createdAt",
          "type": "uint256"
        },
        {
          "indexed": false,
          "internalType": "uint256",
          "name": "completedAt",
          "type": "uint256"
        },
        {
          "indexed": false,
          "internalType": "bool",
          "name": "paid",
          "type": "bool"
        }
      ],
      "name": "TaskCreated",
      "type": "event"
    },
    {
      "anonymous": false,
      "inputs": [
        {
          "indexed": false,
          "internalType": "address",
          "name": "account",
          "type": "address"
        }
      ],
      "name": "Unpaused",
      "type": "event"
    },
    {
      "inputs": [],
      "name": "admin",
      "outputs": [
        {
          "internalType": "address",
          "name": "",
          "type": "address"
        }
      ],
      "stateMutability": "view",
      "type": "function"
    },
    {
      "inputs": [
        {
          "internalType": "uint256",
          "name": "_taskId",
          "type": "uint256"
        },
        {
          "internalType": "address",
          "name": "_assignee",
          "type": "address"
        }
      ],
      "name": "assignTask",
      "outputs": [],
      "stateMutability": "nonpayable",
      "type": "function"
    },
    {
      "inputs": [
        {
          "internalType": "uint256",
          "name": "amount",
          "type": "uint256"
        }
      ],
      "name": "calculateFee",
      "outputs": [
        {
          "internalType": "uint256",
          "name": "",
          "type": "uint256"
        }
      ],
      "stateMutability": "view",
      "type": "function"
    },
    {
      "inputs": [
        {
          "internalType": "uint256",
          "name": "_taskId",
          "type": "uint256"
        }
      ],
      "name": "cancelTask",
      "outputs": [],
      "stateMutability": "nonpayable",
      "type": "function"
    },
    {
      "inputs": [
        {
          "internalType": "uint256",
          "name": "",
          "type": "uint256"
        },
        {
          "internalType": "address",
          "name": "",
          "type": "address"
        },
        {
          "internalType": "uint256",
          "name": "",
          "type": "uint256"
        }
      ],
      "name": "claims",
      "outputs": [
        {
          "internalType": "uint256",
          "name": "",
          "type": "uint256"
        }
      ],
      "stateMutability": "view",
      "type": "function"
    },
    {
      "inputs": [
        {
          "internalType": "address",
          "name": "",
          "type": "address"
        },
        {
          "internalType": "uint256",
          "name": "",
          "type": "uint256"
        }
      ],
      "name": "claimsByMember",
      "outputs": [
        {
          "internalType": "uint256",
          "name": "",
          "type": "uint256"
        }
      ],
      "stateMutability": "view",
      "type": "function"
    },
    {
      "inputs": [
        {
          "internalType": "uint256",
          "name": "_taskId",
          "type": "uint256"
        }
      ],
      "name": "completeTask",
      "outputs": [],
      "stateMutability": "nonpayable",
      "type": "function"
    },
    {
      "inputs": [
        {
          "internalType": "uint256",
          "name": "",
          "type": "uint256"
        },
        {
          "internalType": "address",
          "name": "",
          "type": "address"
        }
      ],
      "name": "completed",
      "outputs": [
        {
          "internalType": "bool",
          "name": "",
          "type": "bool"
        }
      ],
      "stateMutability": "view",
      "type": "function"
    },
    {
      "inputs": [
        {
          "internalType": "string",
          "name": "_name",
          "type": "string"
        },
        {
          "internalType": "string",
          "name": "_hash",
          "type": "string"
        }
      ],
      "name": "createTask",
      "outputs": [],
      "stateMutability": "payable",
      "type": "function"
    },
    {
      "inputs": [],
      "name": "feeBase",
      "outputs": [
        {
          "internalType": "uint256",
          "name": "",
          "type": "uint256"
        }
      ],
      "stateMutability": "view",
      "type": "function"
    },
    {
      "inputs": [],
      "name": "feePercent",
      "outputs": [
        {
          "internalType": "uint256",
          "name": "",
          "type": "uint256"
        }
      ],
      "stateMutability": "view",
      "type": "function"
    },
    {
      "inputs": [],
      "name": "fees",
      "outputs": [
        {
          "internalType": "uint256",
          "name": "",
          "type": "uint256"
        }
      ],
      "stateMutability": "view",
      "type": "function"
    },
    {
      "inputs": [
        {
          "internalType": "uint256",
          "name": "_claimId",
          "type": "uint256"
        }
      ],
      "name": "fetchClaimById",
      "outputs": [
        {
          "components": [
            {
              "internalType": "uint256",
              "name": "id",
              "type": "uint256"
            },
            {
              "internalType": "uint256",
              "name": "taskId",
              "type": "uint256"
            },
            {
              "internalType": "uint256",
              "name": "amount",
              "type": "uint256"
            },
            {
              "internalType": "bool",
              "name": "resolved",
              "type": "bool"
            },
            {
              "internalType": "enum Dask.ClaimResolution",
              "name": "resolution",
              "type": "uint8"
            }
          ],
          "internalType": "struct Dask.Claim",
          "name": "",
          "type": "tuple"
        }
      ],
      "stateMutability": "view",
      "type": "function"
    },
    {
      "inputs": [
        {
          "internalType": "string",
          "name": "_hash",
          "type": "string"
        }
      ],
      "name": "fetchTaskByHash",
      "outputs": [
        {
          "components": [
            {
              "internalType": "uint256",
              "name": "id",
              "type": "uint256"
            },
            {
              "internalType": "string",
              "name": "name",
              "type": "string"
            },
            {
              "internalType": "string",
              "name": "description",
              "type": "string"
            },
            {
              "internalType": "uint256",
              "name": "reward",
              "type": "uint256"
            },
            {
              "internalType": "enum Dask.Status",
              "name": "status",
              "type": "uint8"
            },
            {
              "internalType": "address payable",
              "name": "owner",
              "type": "address"
            },
            {
              "internalType": "address payable",
              "name": "assignee",
              "type": "address"
            },
            {
              "internalType": "uint256",
              "name": "createdAt",
              "type": "uint256"
            },
            {
              "internalType": "uint256",
              "name": "completedAt",
              "type": "uint256"
            },
            {
              "internalType": "bool",
              "name": "paid",
              "type": "bool"
            }
          ],
          "internalType": "struct Dask.Task",
          "name": "",
          "type": "tuple"
        }
      ],
      "stateMutability": "view",
      "type": "function"
    },
    {
      "inputs": [
        {
          "internalType": "uint256",
          "name": "_taskId",
          "type": "uint256"
        }
      ],
      "name": "fetchTaskById",
      "outputs": [
        {
          "components": [
            {
              "internalType": "uint256",
              "name": "id",
              "type": "uint256"
            },
            {
              "internalType": "string",
              "name": "name",
              "type": "string"
            },
            {
              "internalType": "string",
              "name": "description",
              "type": "string"
            },
            {
              "internalType": "uint256",
              "name": "reward",
              "type": "uint256"
            },
            {
              "internalType": "enum Dask.Status",
              "name": "status",
              "type": "uint8"
            },
            {
              "internalType": "address payable",
              "name": "owner",
              "type": "address"
            },
            {
              "internalType": "address payable",
              "name": "assignee",
              "type": "address"
            },
            {
              "internalType": "uint256",
              "name": "createdAt",
              "type": "uint256"
            },
            {
              "internalType": "uint256",
              "name": "completedAt",
              "type": "uint256"
            },
            {
              "internalType": "bool",
              "name": "paid",
              "type": "bool"
            }
          ],
          "internalType": "struct Dask.Task",
          "name": "",
          "type": "tuple"
        }
      ],
      "stateMutability": "view",
      "type": "function"
    },
    {
      "inputs": [],
      "name": "fetchTaskIds",
      "outputs": [
        {
          "internalType": "uint256[]",
          "name": "",
          "type": "uint256[]"
        }
      ],
      "stateMutability": "view",
      "type": "function"
    },
    {
      "inputs": [
        {
          "internalType": "address",
          "name": "_member",
          "type": "address"
        }
      ],
      "name": "fetchTasksByMember",
      "outputs": [
        {
          "components": [
            {
              "internalType": "uint256",
              "name": "id",
              "type": "uint256"
            },
            {
              "internalType": "string",
              "name": "name",
              "type": "string"
            },
            {
              "internalType": "string",
              "name": "description",
              "type": "string"
            },
            {
              "internalType": "uint256",
              "name": "reward",
              "type": "uint256"
            },
            {
              "internalType": "enum Dask.Status",
              "name": "status",
              "type": "uint8"
            },
            {
              "internalType": "address payable",
              "name": "owner",
              "type": "address"
            },
            {
              "internalType": "address payable",
              "name": "assignee",
              "type": "address"
            },
            {
              "internalType": "uint256",
              "name": "createdAt",
              "type": "uint256"
            },
            {
              "internalType": "uint256",
              "name": "completedAt",
              "type": "uint256"
            },
            {
              "internalType": "bool",
              "name": "paid",
              "type": "bool"
            }
          ],
          "internalType": "struct Dask.Task[]",
          "name": "",
          "type": "tuple[]"
        }
      ],
      "stateMutability": "view",
      "type": "function"
    },
    {
      "inputs": [],
      "name": "pauseContract",
      "outputs": [],
      "stateMutability": "nonpayable",
      "type": "function"
    },
    {
      "inputs": [],
      "name": "paused",
      "outputs": [
        {
          "internalType": "bool",
          "name": "",
          "type": "bool"
        }
      ],
      "stateMutability": "view",
      "type": "function"
    },
    {
      "inputs": [
        {
          "internalType": "uint256",
          "name": "_taskId",
          "type": "uint256"
        },
        {
          "internalType": "uint256",
          "name": "_amount",
          "type": "uint256"
        }
      ],
      "name": "raiseClaim",
      "outputs": [],
      "stateMutability": "nonpayable",
      "type": "function"
    },
    {
      "inputs": [
        {
          "internalType": "uint256",
          "name": "_taskId",
          "type": "uint256"
        }
      ],
      "name": "recallReward",
      "outputs": [],
      "stateMutability": "nonpayable",
      "type": "function"
    },
    {
      "inputs": [
        {
          "internalType": "uint256",
          "name": "amount",
          "type": "uint256"
        },
        {
          "internalType": "uint256",
          "name": "_taskId",
          "type": "uint256"
        },
        {
          "internalType": "address",
          "name": "member",
          "type": "address"
        }
      ],
      "name": "refund",
      "outputs": [],
      "stateMutability": "nonpayable",
      "type": "function"
    },
    {
      "inputs": [
        {
          "internalType": "uint256",
          "name": "_taskId",
          "type": "uint256"
        },
        {
          "internalType": "address",
          "name": "_member",
          "type": "address"
        },
        {
          "internalType": "uint256",
          "name": "_claimId",
          "type": "uint256"
        },
        {
          "internalType": "enum Dask.ClaimResolution",
          "name": "_resolution",
          "type": "uint8"
        }
      ],
      "name": "settleClaim",
      "outputs": [],
      "stateMutability": "nonpayable",
      "type": "function"
    },
    {
      "inputs": [
        {
          "internalType": "uint256",
          "name": "amount",
          "type": "uint256"
        }
      ],
      "name": "takeFees",
      "outputs": [],
      "stateMutability": "nonpayable",
      "type": "function"
    },
    {
      "inputs": [
        {
          "internalType": "uint256",
          "name": "_taskId",
          "type": "uint256"
        }
      ],
      "name": "takeReward",
      "outputs": [],
      "stateMutability": "nonpayable",
      "type": "function"
    },
    {
      "inputs": [
        {
          "internalType": "uint256",
          "name": "",
          "type": "uint256"
        }
      ],
      "name": "tasks",
      "outputs": [
        {
          "internalType": "uint256",
          "name": "",
          "type": "uint256"
        }
      ],
      "stateMutability": "view",
      "type": "function"
    },
    {
      "inputs": [
        {
          "internalType": "address",
          "name": "",
          "type": "address"
        },
        {
          "internalType": "uint256",
          "name": "",
          "type": "uint256"
        }
      ],
      "name": "tasksByMember",
      "outputs": [
        {
          "internalType": "uint256",
          "name": "",
          "type": "uint256"
        }
      ],
      "stateMutability": "view",
      "type": "function"
    },
    {
      "inputs": [
        {
          "internalType": "address",
          "name": "_newAdmin",
          "type": "address"
        }
      ],
      "name": "transferOwnership",
      "outputs": [],
      "stateMutability": "nonpayable",
      "type": "function"
    },
    {
      "inputs": [],
      "name": "unpauseContract",
      "outputs": [],
      "stateMutability": "nonpayable",
      "type": "function"
    },
    {
      "inputs": [
        {
          "internalType": "uint256",
          "name": "_feePercent",
          "type": "uint256"
        },
        {
          "internalType": "uint256",
          "name": "_feeBase",
          "type": "uint256"
        }
      ],
      "name": "updateFees",
      "outputs": [],
      "stateMutability": "nonpayable",
      "type": "function"
    }
  ],
  "bytecode": "0x60806040523480156200001157600080fd5b5060405162005b1338038062005b1383398181016040528101906200003791906200017c565b60016000819055506000600160006101000a81548160ff02191690831515021790555060008211620000a0576040517f08c379a0000000000000000000000000000000000000000000000000000000008152600401620000979062000224565b60405180910390fd5b60008111620000e6576040517f08c379a0000000000000000000000000000000000000000000000000000000008152600401620000dd9062000296565b60405180910390fd5b336001806101000a81548173ffffffffffffffffffffffffffffffffffffffff021916908373ffffffffffffffffffffffffffffffffffffffff16021790555081600481905550806005819055505050620002b8565b600080fd5b6000819050919050565b620001568162000141565b81146200016257600080fd5b50565b60008151905062000176816200014b565b92915050565b600080604083850312156200019657620001956200013c565b5b6000620001a68582860162000165565b9250506020620001b98582860162000165565b9150509250929050565b600082825260208201905092915050565b7f6665652070657263656e7420696e76616c696400000000000000000000000000600082015250565b60006200020c601383620001c3565b91506200021982620001d4565b602082019050919050565b600060208201905081810360008301526200023f81620001fd565b9050919050565b7f666565206261736520696e76616c696400000000000000000000000000000000600082015250565b60006200027e601083620001c3565b91506200028b8262000246565b602082019050919050565b60006020820190508181036000830152620002b1816200026f565b9050919050565b61584b80620002c86000396000f3fe6080604052600436106101cd5760003560e01c80639af1d35a116100f7578063cda562f011610095578063e1e2955811610064578063e1e2955814610689578063f2fde38b146106b2578063f851a440146106db578063ffc4ed2514610706576101cd565b8063cda562f014610595578063d6ca5129146105d2578063dfd660101461060f578063e0960e091461064c576101cd565b8063b33712c5116100d1578063b33712c514610503578063b479a3a81461051a578063c26265d614610543578063cbb943591461056c576101cd565b80639af1d35a14610472578063a3d07f671461049d578063a3fdba9d146104c6576101cd565b80636db794371161016f57806384ae97f41161013e57806384ae97f4146103a25780638d977672146103cd57806395e911a81461040a57806399a5d74714610435576101cd565b80636db79437146102e8578063756bc503146103115780637eec20a81461034e5780637fd6f15c14610377576101cd565b80633402f82d116101ab5780633402f82d14610254578063439766ce1461027d5780635293ee81146102945780635c975abb146102bd576101cd565b8063205b09f3146101d25780632129b68b146101fb578063292a458514610238575b600080fd5b3480156101de57600080fd5b506101f960048036038101906101f49190613cea565b610743565b005b34801561020757600080fd5b50610222600480360381019061021d9190613d75565b610a84565b60405161022f91906140a0565b60405180910390f35b610252600480360381019061024d91906141f7565b610ebf565b005b34801561026057600080fd5b5061027b60048036038101906102769190614294565b611181565b005b34801561028957600080fd5b506102926116f1565b005b3480156102a057600080fd5b506102bb60048036038101906102b691906142fb565b611789565b005b3480156102c957600080fd5b506102d2611a9e565b6040516102df919061434a565b60405180910390f35b3480156102f457600080fd5b5061030f600480360381019061030a9190614365565b611ab5565b005b34801561031d57600080fd5b50610338600480360381019061033391906143a5565b611c23565b6040516103459190614407565b60405180910390f35b34801561035a57600080fd5b5061037560048036038101906103709190613cea565b611c61565b005b34801561038357600080fd5b5061038c611eec565b6040516103999190614407565b60405180910390f35b3480156103ae57600080fd5b506103b7611ef2565b6040516103c491906144d1565b60405180910390f35b3480156103d957600080fd5b506103f460048036038101906103ef9190613cea565b611f4a565b6040516104019190614407565b60405180910390f35b34801561041657600080fd5b5061041f611f6e565b60405161042c9190614407565b60405180910390f35b34801561044157600080fd5b5061045c60048036038101906104579190613cea565b611f74565b6040516104699190614407565b60405180910390f35b34801561047e57600080fd5b50610487611f98565b6040516104949190614407565b60405180910390f35b3480156104a957600080fd5b506104c460048036038101906104bf91906144f3565b611f9e565b005b3480156104d257600080fd5b506104ed60048036038101906104e89190613cea565b6122f1565b6040516104fa91906145f6565b60405180910390f35b34801561050f57600080fd5b50610518612392565b005b34801561052657600080fd5b50610541600480360381019061053c9190614365565b61242a565b005b34801561054f57600080fd5b5061056a60048036038101906105659190613cea565b612854565b005b34801561057857600080fd5b50610593600480360381019061058e9190613cea565b612b60565b005b3480156105a157600080fd5b506105bc60048036038101906105b79190614611565b612ddc565b6040516105c99190614407565b60405180910390f35b3480156105de57600080fd5b506105f960048036038101906105f49190613cea565b612e0d565b6040516106069190614732565b60405180910390f35b34801561061b57600080fd5b5061063660048036038101906106319190614611565b613089565b6040516106439190614407565b60405180910390f35b34801561065857600080fd5b50610673600480360381019061066e9190614754565b6130ba565b6040516106809190614732565b60405180910390f35b34801561069557600080fd5b506106b060048036038101906106ab9190613cea565b613354565b005b3480156106be57600080fd5b506106d960048036038101906106d49190613d75565b613893565b005b3480156106e757600080fd5b506106f0613964565b6040516106fd91906147ac565b60405180910390f35b34801561071257600080fd5b5061072d600480360381019061072891906142fb565b613988565b60405161073a919061434a565b60405180910390f35b803373ffffffffffffffffffffffffffffffffffffffff166008600083815260200190815260200160002060050160009054906101000a900473ffffffffffffffffffffffffffffffffffffffff1673ffffffffffffffffffffffffffffffffffffffff16146107e8576040517f08c379a00000000000000000000000000000000000000000000000000000000081526004016107df90614824565b60405180910390fd5b60026000540361082d576040517f08c379a000000000000000000000000000000000000000000000000000000000815260040161082490614890565b60405180910390fd5b600260008190555061083d611a9e565b1561087d576040517f08c379a0000000000000000000000000000000000000000000000000000000008152600401610874906148fc565b60405180910390fd5b60006008600084815260200190815260200160002090506005808111156108a7576108a6613e76565b5b8160040160009054906101000a900460ff1660058111156108cb576108ca613e76565b5b1461090b576040517f08c379a000000000000000000000000000000000000000000000000000000000815260040161090290614968565b60405180910390fd5b600015158160080160009054906101000a900460ff16151514610963576040517f08c379a000000000000000000000000000000000000000000000000000000000815260040161095a906149d4565b60405180910390fd5b60006109728260030154611f74565b905060008183600301546109869190614a23565b9050816006600082825461099a9190614a57565b9250508190555060018360080160006101000a81548160ff0219169083151502179055506000836003018190555060003373ffffffffffffffffffffffffffffffffffffffff16826040516109ee90614ade565b60006040518083038185875af1925050503d8060008114610a2b576040519150601f19603f3d011682016040523d82523d6000602084013e610a30565b606091505b5050905080610a74576040517f08c379a0000000000000000000000000000000000000000000000000000000008152600401610a6b90614b3f565b60405180910390fd5b5050505060016000819055505050565b60606000600d60008473ffffffffffffffffffffffffffffffffffffffff1673ffffffffffffffffffffffffffffffffffffffff1681526020019081526020016000208054905067ffffffffffffffff811115610ae457610ae36140cc565b5b604051908082528060200260200182016040528015610b1d57816020015b610b0a613b27565b815260200190600190039081610b025790505b50905060005b600d60008573ffffffffffffffffffffffffffffffffffffffff1673ffffffffffffffffffffffffffffffffffffffff16815260200190815260200160002080549050811015610eb5576000600d60008673ffffffffffffffffffffffffffffffffffffffff1673ffffffffffffffffffffffffffffffffffffffff1681526020019081526020016000208281548110610bc057610bbf614b5f565b5b90600052602060002001549050604051806101400160405280828152602001600860008481526020019081526020016000206001018054610c0090614bbd565b80601f0160208091040260200160405190810160405280929190818152602001828054610c2c90614bbd565b8015610c795780601f10610c4e57610100808354040283529160200191610c79565b820191906000526020600020905b815481529060010190602001808311610c5c57829003601f168201915b50505050508152602001600860008481526020019081526020016000206002018054610ca490614bbd565b80601f0160208091040260200160405190810160405280929190818152602001828054610cd090614bbd565b8015610d1d5780601f10610cf257610100808354040283529160200191610d1d565b820191906000526020600020905b815481529060010190602001808311610d0057829003601f168201915b50505050508152602001600860008481526020019081526020016000206003015481526020016008600084815260200190815260200160002060040160009054906101000a900460ff166005811115610d7957610d78613e76565b5b81526020016008600084815260200190815260200160002060040160019054906101000a900473ffffffffffffffffffffffffffffffffffffffff1673ffffffffffffffffffffffffffffffffffffffff1681526020016008600084815260200190815260200160002060050160009054906101000a900473ffffffffffffffffffffffffffffffffffffffff1673ffffffffffffffffffffffffffffffffffffffff16815260200160086000848152602001908152602001600020600601548152602001600860008481526020019081526020016000206007015481526020016008600084815260200190815260200160002060080160009054906101000a900460ff161515815250838381518110610e9657610e95614b5f565b5b6020026020010181905250508080610ead90614bee565b915050610b23565b5080915050919050565b610ec7611a9e565b15610f07576040517f08c379a0000000000000000000000000000000000000000000000000000000008152600401610efe906148fc565b60405180910390fd5b60003411610f4a576040517f08c379a0000000000000000000000000000000000000000000000000000000008152600401610f4190614c82565b60405180910390fd5b610f5460026139b7565b6000610f6060026139cd565b9050600060086000838152602001908152602001600020905081816000018190555083816001019080519060200190610f9a929190613bba565b5082816002019080519060200190610fb3929190613bba565b5034816003018190555060008160040160006101000a81548160ff02191690836005811115610fe557610fe4613e76565b5b0217905550338160040160016101000a81548173ffffffffffffffffffffffffffffffffffffffff021916908373ffffffffffffffffffffffffffffffffffffffff160217905550428160060181905550816009846040516110479190614cde565b908152602001604051809103902081905550600d60003373ffffffffffffffffffffffffffffffffffffffff1673ffffffffffffffffffffffffffffffffffffffff16815260200190815260200160002082908060018154018082558091505060019003906000526020600020016000909190919091505560078290806001815401808255809150506001900390600052602060002001600090919091909150557ff2802579e501c7f488e2591a434bdeadb914d88c97cd504843ef13956d177157828585348560040160009054906101000a900460ff16338760050160009054906101000a900473ffffffffffffffffffffffffffffffffffffffff164289600701548a60080160009054906101000a900460ff166040516111739a99989796959493929190614d9c565b60405180910390a150505050565b60018054906101000a900473ffffffffffffffffffffffffffffffffffffffff1673ffffffffffffffffffffffffffffffffffffffff163373ffffffffffffffffffffffffffffffffffffffff161461120f576040517f08c379a000000000000000000000000000000000000000000000000000000000815260040161120690614e92565b60405180910390fd5b600260005403611254576040517f08c379a000000000000000000000000000000000000000000000000000000000815260040161124b90614890565b60405180910390fd5b6002600081905550611264611a9e565b156112a4576040517f08c379a000000000000000000000000000000000000000000000000000000000815260040161129b906148fc565b60405180910390fd5b60006008600086815260200190815260200160002090508373ffffffffffffffffffffffffffffffffffffffff168160040160019054906101000a900473ffffffffffffffffffffffffffffffffffffffff1673ffffffffffffffffffffffffffffffffffffffff16148061136857508373ffffffffffffffffffffffffffffffffffffffff168160050160009054906101000a900473ffffffffffffffffffffffffffffffffffffffff1673ffffffffffffffffffffffffffffffffffffffff16145b6113a7576040517f08c379a000000000000000000000000000000000000000000000000000000000815260040161139e90614efe565b60405180910390fd5b6000600b60008581526020019081526020016000209050600015158160030160009054906101000a900460ff16151514611416576040517f08c379a000000000000000000000000000000000000000000000000000000000815260040161140d90614f6a565b60405180910390fd5b6000600381111561142a57611429613e76565b5b8160030160019054906101000a900460ff16600381111561144e5761144d613e76565b5b1461148e576040517f08c379a000000000000000000000000000000000000000000000000000000000815260040161148590614fd6565b60405180910390fd5b600160038111156114a2576114a1613e76565b5b8360038111156114b5576114b4613e76565b5b036116115760006114c98260020154611f74565b905060008183600201546114dd9190614a23565b905081600660008282546114f19190614a57565b9250508190555082600201548460030160008282546115109190614a23565b9250508190555060018360030160006101000a81548160ff02191690831515021790555060018360030160016101000a81548160ff0219169083600381111561155c5761155b613e76565b5b021790555060008773ffffffffffffffffffffffffffffffffffffffff168260405161158790614ade565b60006040518083038185875af1925050503d80600081146115c4576040519150601f19603f3d011682016040523d82523d6000602084013e6115c9565b606091505b505090508061160d576040517f08c379a000000000000000000000000000000000000000000000000000000000815260040161160490614b3f565b60405180910390fd5b5050505b6002600381111561162557611624613e76565b5b83600381111561163857611637613e76565b5b036116885760018160030160006101000a81548160ff02191690831515021790555060028160030160016101000a81548160ff0219169083600381111561168257611681613e76565b5b02179055505b60038081111561169b5761169a613e76565b5b8360038111156116ae576116ad613e76565b5b036116e15760038160030160016101000a81548160ff021916908360038111156116db576116da613e76565b5b02179055505b5050600160008190555050505050565b60018054906101000a900473ffffffffffffffffffffffffffffffffffffffff1673ffffffffffffffffffffffffffffffffffffffff163373ffffffffffffffffffffffffffffffffffffffff161461177f576040517f08c379a000000000000000000000000000000000000000000000000000000000815260040161177690614e92565b60405180910390fd5b6117876139db565b565b813373ffffffffffffffffffffffffffffffffffffffff166008600083815260200190815260200160002060040160019054906101000a900473ffffffffffffffffffffffffffffffffffffffff1673ffffffffffffffffffffffffffffffffffffffff161461182e576040517f08c379a000000000000000000000000000000000000000000000000000000000815260040161182590615042565b60405180910390fd5b826000600581111561184357611842613e76565b5b6008600083815260200190815260200160002060040160009054906101000a900460ff16600581111561187957611878613e76565b5b146118b9576040517f08c379a00000000000000000000000000000000000000000000000000000000081526004016118b0906150ae565b60405180910390fd5b6118c1611a9e565b15611901576040517f08c379a00000000000000000000000000000000000000000000000000000000081526004016118f8906148fc565b60405180910390fd5b6000600860008681526020019081526020016000209050838160050160006101000a81548173ffffffffffffffffffffffffffffffffffffffff021916908373ffffffffffffffffffffffffffffffffffffffff16021790555060018160040160006101000a81548160ff0219169083600581111561198357611982613e76565b5b0217905550600d60008573ffffffffffffffffffffffffffffffffffffffff1673ffffffffffffffffffffffffffffffffffffffff168152602001908152602001600020816000015490806001815401808255809150506001900390600052602060002001600090919091909150557ffaf0b24ad95fe95fd3f179659ab3971ec24cbdf6fa09975fdcb37b6ac27c71208160000154826001018360020184600301548560040160009054906101000a900460ff168660040160019054906101000a900473ffffffffffffffffffffffffffffffffffffffff168a886006015489600701548a60080160009054906101000a900460ff16604051611a8f9a99989796959493929190615163565b60405180910390a15050505050565b6000600160009054906101000a900460ff16905090565b60018054906101000a900473ffffffffffffffffffffffffffffffffffffffff1673ffffffffffffffffffffffffffffffffffffffff163373ffffffffffffffffffffffffffffffffffffffff1614611b43576040517f08c379a0000000000000000000000000000000000000000000000000000000008152600401611b3a90614e92565b60405180910390fd5b611b4b611a9e565b15611b8b576040517f08c379a0000000000000000000000000000000000000000000000000000000008152600401611b82906148fc565b60405180910390fd5b60008211611bce576040517f08c379a0000000000000000000000000000000000000000000000000000000008152600401611bc590615259565b60405180910390fd5b60008111611c11576040517f08c379a0000000000000000000000000000000000000000000000000000000008152600401611c08906152c5565b60405180910390fd5b81600481905550806005819055505050565b600c6020528260005260406000206020528160005260406000208181548110611c4b57600080fd5b9060005260206000200160009250925050505481565b803373ffffffffffffffffffffffffffffffffffffffff166008600083815260200190815260200160002060040160019054906101000a900473ffffffffffffffffffffffffffffffffffffffff1673ffffffffffffffffffffffffffffffffffffffff1614611d06576040517f08c379a0000000000000000000000000000000000000000000000000000000008152600401611cfd90615042565b60405180910390fd5b8160006005811115611d1b57611d1a613e76565b5b6008600083815260200190815260200160002060040160009054906101000a900460ff166005811115611d5157611d50613e76565b5b14611d91576040517f08c379a0000000000000000000000000000000000000000000000000000000008152600401611d88906150ae565b60405180910390fd5b611d99611a9e565b15611dd9576040517f08c379a0000000000000000000000000000000000000000000000000000000008152600401611dd0906148fc565b60405180910390fd5b600060086000858152602001908152602001600020905060038160040160006101000a81548160ff02191690836005811115611e1857611e17613e76565b5b02179055507f146625cade83d66314bf5798afe66f128b45efb2e3f87bbf2a75a40fd61536ce8160000154826001018360020184600301548560040160009054906101000a900460ff168660040160019054906101000a900473ffffffffffffffffffffffffffffffffffffffff168760050160009054906101000a900473ffffffffffffffffffffffffffffffffffffffff16886006015489600701548a60080160009054906101000a900460ff16604051611ede9a999897969594939291906152e5565b60405180910390a150505050565b60045481565b60606007805480602002602001604051908101604052809291908181526020018280548015611f4057602002820191906000526020600020905b815481526020019060010190808311611f2c575b5050505050905090565b60078181548110611f5a57600080fd5b906000526020600020016000915090505481565b60055481565b600060055460045483611f87919061538f565b611f919190615418565b9050919050565b60065481565b60018054906101000a900473ffffffffffffffffffffffffffffffffffffffff1673ffffffffffffffffffffffffffffffffffffffff163373ffffffffffffffffffffffffffffffffffffffff161461202c576040517f08c379a000000000000000000000000000000000000000000000000000000000815260040161202390614e92565b60405180910390fd5b600260005403612071576040517f08c379a000000000000000000000000000000000000000000000000000000000815260040161206890614890565b60405180910390fd5b60026000819055506000600860008481526020019081526020016000209050600015158160080160009054906101000a900460ff161515146120e8576040517f08c379a00000000000000000000000000000000000000000000000000000000081526004016120df906149d4565b60405180910390fd5b838160030154101561212f576040517f08c379a000000000000000000000000000000000000000000000000000000000815260040161212690615495565b60405180910390fd5b8173ffffffffffffffffffffffffffffffffffffffff168160040160019054906101000a900473ffffffffffffffffffffffffffffffffffffffff1673ffffffffffffffffffffffffffffffffffffffff1614806121dc57508173ffffffffffffffffffffffffffffffffffffffff168160050160009054906101000a900473ffffffffffffffffffffffffffffffffffffffff1673ffffffffffffffffffffffffffffffffffffffff16145b61221b576040517f08c379a000000000000000000000000000000000000000000000000000000000815260040161221290615501565b60405180910390fd5b8381600301600082825461222f9190614a23565b9250508190555060008273ffffffffffffffffffffffffffffffffffffffff168560405161225c90614ade565b60006040518083038185875af1925050503d8060008114612299576040519150601f19603f3d011682016040523d82523d6000602084013e61229e565b606091505b50509050806122e2576040517f08c379a00000000000000000000000000000000000000000000000000000000081526004016122d990614b3f565b60405180910390fd5b50506001600081905550505050565b6122f9613c40565b600b60008381526020019081526020016000206040518060a00160405290816000820154815260200160018201548152602001600282015481526020016003820160009054906101000a900460ff161515151581526020016003820160019054906101000a900460ff16600381111561237557612374613e76565b5b600381111561238757612386613e76565b5b815250509050919050565b60018054906101000a900473ffffffffffffffffffffffffffffffffffffffff1673ffffffffffffffffffffffffffffffffffffffff163373ffffffffffffffffffffffffffffffffffffffff1614612420576040517f08c379a000000000000000000000000000000000000000000000000000000000815260040161241790614e92565b60405180910390fd5b612428613a7d565b565b8160006008600083815260200190815260200160002090508060040160019054906101000a900473ffffffffffffffffffffffffffffffffffffffff1673ffffffffffffffffffffffffffffffffffffffff163373ffffffffffffffffffffffffffffffffffffffff1614806124ef57508060050160009054906101000a900473ffffffffffffffffffffffffffffffffffffffff1673ffffffffffffffffffffffffffffffffffffffff163373ffffffffffffffffffffffffffffffffffffffff16145b61252e576040517f08c379a000000000000000000000000000000000000000000000000000000000815260040161252590615501565b60405180910390fd5b6000600860008681526020019081526020016000209050600015158160080160009054906101000a900460ff1615151461259d576040517f08c379a0000000000000000000000000000000000000000000000000000000008152600401612594906149d4565b60405180910390fd5b83816003015410156125e4576040517f08c379a00000000000000000000000000000000000000000000000000000000081526004016125db9061556d565b60405180910390fd5b6000805b600c600088815260200190815260200160002060003373ffffffffffffffffffffffffffffffffffffffff1673ffffffffffffffffffffffffffffffffffffffff168152602001908152602001600020805490508110156126ec576000600c600089815260200190815260200160002060003373ffffffffffffffffffffffffffffffffffffffff1673ffffffffffffffffffffffffffffffffffffffff16815260200190815260200160002082815481106126a7576126a6614b5f565b5b90600052602060002001549050600b600082815260200190815260200160002060020154836126d69190614a57565b92505080806126e490614bee565b9150506125e8565b50848183600301546126fe9190614a23565b101561273f576040517f08c379a00000000000000000000000000000000000000000000000000000000081526004016127369061556d565b60405180910390fd5b61274960036139b7565b600061275560036139cd565b90506000600b6000838152602001908152602001600020905081816000018190555087816001018190555086816002018190555060008160030160006101000a81548160ff02191690831515021790555060008160030160016101000a81548160ff021916908360038111156127ce576127cd613e76565b5b0217905550600c600089815260200190815260200160002060003373ffffffffffffffffffffffffffffffffffffffff1673ffffffffffffffffffffffffffffffffffffffff1681526020019081526020016000208290806001815401808255809150506001900390600052602060002001600090919091909150555050505050505050565b803373ffffffffffffffffffffffffffffffffffffffff166008600083815260200190815260200160002060040160019054906101000a900473ffffffffffffffffffffffffffffffffffffffff1673ffffffffffffffffffffffffffffffffffffffff16146128f9576040517f08c379a00000000000000000000000000000000000000000000000000000000081526004016128f090615042565b60405180910390fd5b60026000540361293e576040517f08c379a000000000000000000000000000000000000000000000000000000000815260040161293590614890565b60405180910390fd5b600260008190555061294e611a9e565b1561298e576040517f08c379a0000000000000000000000000000000000000000000000000000000008152600401612985906148fc565b60405180910390fd5b6000600860008481526020019081526020016000209050600360058111156129b9576129b8613e76565b5b8160040160009054906101000a900460ff1660058111156129dd576129dc613e76565b5b14612a1d576040517f08c379a0000000000000000000000000000000000000000000000000000000008152600401612a14906155d9565b60405180910390fd5b600015158160080160009054906101000a900460ff16151514612a75576040517f08c379a0000000000000000000000000000000000000000000000000000000008152600401612a6c906149d4565b60405180910390fd5b60008160030154905060018260080160006101000a81548160ff0219169083151502179055506000826003018190555060003373ffffffffffffffffffffffffffffffffffffffff1682604051612acb90614ade565b60006040518083038185875af1925050503d8060008114612b08576040519150601f19603f3d011682016040523d82523d6000602084013e612b0d565b606091505b5050905080612b51576040517f08c379a0000000000000000000000000000000000000000000000000000000008152600401612b4890614b3f565b60405180910390fd5b50505060016000819055505050565b60018054906101000a900473ffffffffffffffffffffffffffffffffffffffff1673ffffffffffffffffffffffffffffffffffffffff163373ffffffffffffffffffffffffffffffffffffffff1614612bee576040517f08c379a0000000000000000000000000000000000000000000000000000000008152600401612be590614e92565b60405180910390fd5b600260005403612c33576040517f08c379a0000000000000000000000000000000000000000000000000000000008152600401612c2a90614890565b60405180910390fd5b6002600081905550612c43611a9e565b15612c83576040517f08c379a0000000000000000000000000000000000000000000000000000000008152600401612c7a906148fc565b60405180910390fd5b60008111612cc6576040517f08c379a0000000000000000000000000000000000000000000000000000000008152600401612cbd90615645565b60405180910390fd5b806006541015612d0b576040517f08c379a0000000000000000000000000000000000000000000000000000000008152600401612d02906156b1565b60405180910390fd5b8060066000828254612d1d9190614a23565b9250508190555060003373ffffffffffffffffffffffffffffffffffffffff1682604051612d4a90614ade565b60006040518083038185875af1925050503d8060008114612d87576040519150601f19603f3d011682016040523d82523d6000602084013e612d8c565b606091505b5050905080612dd0576040517f08c379a0000000000000000000000000000000000000000000000000000000008152600401612dc790614b3f565b60405180910390fd5b50600160008190555050565b600d6020528160005260406000208181548110612df857600080fd5b90600052602060002001600091509150505481565b612e15613b27565b600860008381526020019081526020016000206040518061014001604052908160008201548152602001600182018054612e4e90614bbd565b80601f0160208091040260200160405190810160405280929190818152602001828054612e7a90614bbd565b8015612ec75780601f10612e9c57610100808354040283529160200191612ec7565b820191906000526020600020905b815481529060010190602001808311612eaa57829003601f168201915b50505050508152602001600282018054612ee090614bbd565b80601f0160208091040260200160405190810160405280929190818152602001828054612f0c90614bbd565b8015612f595780601f10612f2e57610100808354040283529160200191612f59565b820191906000526020600020905b815481529060010190602001808311612f3c57829003601f168201915b50505050508152602001600382015481526020016004820160009054906101000a900460ff166005811115612f9157612f90613e76565b5b6005811115612fa357612fa2613e76565b5b81526020016004820160019054906101000a900473ffffffffffffffffffffffffffffffffffffffff1673ffffffffffffffffffffffffffffffffffffffff1673ffffffffffffffffffffffffffffffffffffffff1681526020016005820160009054906101000a900473ffffffffffffffffffffffffffffffffffffffff1673ffffffffffffffffffffffffffffffffffffffff1673ffffffffffffffffffffffffffffffffffffffff16815260200160068201548152602001600782015481526020016008820160009054906101000a900460ff1615151515815250509050919050565b600e60205281600052604060002081815481106130a557600080fd5b90600052602060002001600091509150505481565b6130c2613b27565b600860006009846040516130d69190614cde565b9081526020016040518091039020548152602001908152602001600020604051806101400160405290816000820154815260200160018201805461311990614bbd565b80601f016020809104026020016040519081016040528092919081815260200182805461314590614bbd565b80156131925780601f1061316757610100808354040283529160200191613192565b820191906000526020600020905b81548152906001019060200180831161317557829003601f168201915b505050505081526020016002820180546131ab90614bbd565b80601f01602080910402602001604051908101604052809291908181526020018280546131d790614bbd565b80156132245780601f106131f957610100808354040283529160200191613224565b820191906000526020600020905b81548152906001019060200180831161320757829003601f168201915b50505050508152602001600382015481526020016004820160009054906101000a900460ff16600581111561325c5761325b613e76565b5b600581111561326e5761326d613e76565b5b81526020016004820160019054906101000a900473ffffffffffffffffffffffffffffffffffffffff1673ffffffffffffffffffffffffffffffffffffffff1673ffffffffffffffffffffffffffffffffffffffff1681526020016005820160009054906101000a900473ffffffffffffffffffffffffffffffffffffffff1673ffffffffffffffffffffffffffffffffffffffff1673ffffffffffffffffffffffffffffffffffffffff16815260200160068201548152602001600782015481526020016008820160009054906101000a900460ff1615151515815250509050919050565b8060006008600083815260200190815260200160002090508060040160019054906101000a900473ffffffffffffffffffffffffffffffffffffffff1673ffffffffffffffffffffffffffffffffffffffff163373ffffffffffffffffffffffffffffffffffffffff16148061341957508060050160009054906101000a900473ffffffffffffffffffffffffffffffffffffffff1673ffffffffffffffffffffffffffffffffffffffff163373ffffffffffffffffffffffffffffffffffffffff16145b613458576040517f08c379a000000000000000000000000000000000000000000000000000000000815260040161344f90615501565b60405180910390fd5b613460611a9e565b156134a0576040517f08c379a0000000000000000000000000000000000000000000000000000000008152600401613497906148fc565b60405180910390fd5b6000600860008581526020019081526020016000209050600260058111156134cb576134ca613e76565b5b8160040160009054906101000a900460ff1660058111156134ef576134ee613e76565b5b148061353057506001600581111561350a57613509613e76565b5b8160040160009054906101000a900460ff16600581111561352e5761352d613e76565b5b145b61356f576040517f08c379a00000000000000000000000000000000000000000000000000000000081526004016135669061571d565b60405180910390fd5b60001515600a600086815260200190815260200160002060003373ffffffffffffffffffffffffffffffffffffffff1673ffffffffffffffffffffffffffffffffffffffff16815260200190815260200160002060009054906101000a900460ff16151514613613576040517f08c379a000000000000000000000000000000000000000000000000000000000815260040161360a90615789565b60405180910390fd5b6001600a600086815260200190815260200160002060003373ffffffffffffffffffffffffffffffffffffffff1673ffffffffffffffffffffffffffffffffffffffff16815260200190815260200160002060006101000a81548160ff021916908315150217905550600a600085815260200190815260200160002060008260040160019054906101000a900473ffffffffffffffffffffffffffffffffffffffff1673ffffffffffffffffffffffffffffffffffffffff1673ffffffffffffffffffffffffffffffffffffffff16815260200190815260200160002060009054906101000a900460ff1680156137885750600a600085815260200190815260200160002060008260050160009054906101000a900473ffffffffffffffffffffffffffffffffffffffff1673ffffffffffffffffffffffffffffffffffffffff1673ffffffffffffffffffffffffffffffffffffffff16815260200190815260200160002060009054906101000a900460ff165b1561388d5742816007018190555060058160040160006101000a81548160ff021916908360058111156137be576137bd613e76565b5b02179055507f86fa5311dcb386f9d0416fe46a79bff692c8e250a85a3a6653c4ed3d11a9a6c98160000154826001018360020184600301548560040160009054906101000a900460ff168660040160019054906101000a900473ffffffffffffffffffffffffffffffffffffffff168760050160009054906101000a900473ffffffffffffffffffffffffffffffffffffffff16886006015489600701548a60080160009054906101000a900460ff166040516138849a999897969594939291906152e5565b60405180910390a15b50505050565b60018054906101000a900473ffffffffffffffffffffffffffffffffffffffff1673ffffffffffffffffffffffffffffffffffffffff163373ffffffffffffffffffffffffffffffffffffffff1614613921576040517f08c379a000000000000000000000000000000000000000000000000000000000815260040161391890614e92565b60405180910390fd5b806001806101000a81548173ffffffffffffffffffffffffffffffffffffffff021916908373ffffffffffffffffffffffffffffffffffffffff16021790555050565b60018054906101000a900473ffffffffffffffffffffffffffffffffffffffff1681565b600a6020528160005260406000206020528060005260406000206000915091509054906101000a900460ff1681565b6001816000016000828254019250508190555050565b600081600001549050919050565b6139e3611a9e565b15613a23576040517f08c379a0000000000000000000000000000000000000000000000000000000008152600401613a1a906148fc565b60405180910390fd5b60018060006101000a81548160ff0219169083151502179055507f62e78cea01bee320cd4e420270b5ea74000d11b0c9f74754ebdbfc544b05a258613a66613b1f565b604051613a7391906147ac565b60405180910390a1565b613a85611a9e565b613ac4576040517f08c379a0000000000000000000000000000000000000000000000000000000008152600401613abb906157f5565b60405180910390fd5b6000600160006101000a81548160ff0219169083151502179055507f5db9ee0a495bf2e6ff9c91a7834c1ba4fdd244a5e8aa4e537bd38aeae4b073aa613b08613b1f565b604051613b1591906147ac565b60405180910390a1565b600033905090565b6040518061014001604052806000815260200160608152602001606081526020016000815260200160006005811115613b6357613b62613e76565b5b8152602001600073ffffffffffffffffffffffffffffffffffffffff168152602001600073ffffffffffffffffffffffffffffffffffffffff16815260200160008152602001600081526020016000151581525090565b828054613bc690614bbd565b90600052602060002090601f016020900481019282613be85760008555613c2f565b82601f10613c0157805160ff1916838001178555613c2f565b82800160010185558215613c2f579182015b82811115613c2e578251825591602001919060010190613c13565b5b509050613c3c9190613c83565b5090565b6040518060a0016040528060008152602001600081526020016000815260200160001515815260200160006003811115613c7d57613c7c613e76565b5b81525090565b5b80821115613c9c576000816000905550600101613c84565b5090565b6000604051905090565b600080fd5b600080fd5b6000819050919050565b613cc781613cb4565b8114613cd257600080fd5b50565b600081359050613ce481613cbe565b92915050565b600060208284031215613d0057613cff613caa565b5b6000613d0e84828501613cd5565b91505092915050565b600073ffffffffffffffffffffffffffffffffffffffff82169050919050565b6000613d4282613d17565b9050919050565b613d5281613d37565b8114613d5d57600080fd5b50565b600081359050613d6f81613d49565b92915050565b600060208284031215613d8b57613d8a613caa565b5b6000613d9984828501613d60565b91505092915050565b600081519050919050565b600082825260208201905092915050565b6000819050602082019050919050565b613dd781613cb4565b82525050565b600081519050919050565b600082825260208201905092915050565b60005b83811015613e17578082015181840152602081019050613dfc565b83811115613e26576000848401525b50505050565b6000601f19601f8301169050919050565b6000613e4882613ddd565b613e528185613de8565b9350613e62818560208601613df9565b613e6b81613e2c565b840191505092915050565b7f4e487b7100000000000000000000000000000000000000000000000000000000600052602160045260246000fd5b60068110613eb657613eb5613e76565b5b50565b6000819050613ec782613ea5565b919050565b6000613ed782613eb9565b9050919050565b613ee781613ecc565b82525050565b6000613ef882613d17565b9050919050565b613f0881613eed565b82525050565b60008115159050919050565b613f2381613f0e565b82525050565b600061014083016000830151613f426000860182613dce565b5060208301518482036020860152613f5a8282613e3d565b91505060408301518482036040860152613f748282613e3d565b9150506060830151613f896060860182613dce565b506080830151613f9c6080860182613ede565b5060a0830151613faf60a0860182613eff565b5060c0830151613fc260c0860182613eff565b5060e0830151613fd560e0860182613dce565b50610100830151613fea610100860182613dce565b50610120830151613fff610120860182613f1a565b508091505092915050565b60006140168383613f29565b905092915050565b6000602082019050919050565b600061403682613da2565b6140408185613dad565b93508360208202850161405285613dbe565b8060005b8581101561408e578484038952815161406f858261400a565b945061407a8361401e565b925060208a01995050600181019050614056565b50829750879550505050505092915050565b600060208201905081810360008301526140ba818461402b565b905092915050565b600080fd5b600080fd5b7f4e487b7100000000000000000000000000000000000000000000000000000000600052604160045260246000fd5b61410482613e2c565b810181811067ffffffffffffffff82111715614123576141226140cc565b5b80604052505050565b6000614136613ca0565b905061414282826140fb565b919050565b600067ffffffffffffffff821115614162576141616140cc565b5b61416b82613e2c565b9050602081019050919050565b82818337600083830152505050565b600061419a61419584614147565b61412c565b9050828152602081018484840111156141b6576141b56140c7565b5b6141c1848285614178565b509392505050565b600082601f8301126141de576141dd6140c2565b5b81356141ee848260208601614187565b91505092915050565b6000806040838503121561420e5761420d613caa565b5b600083013567ffffffffffffffff81111561422c5761422b613caf565b5b614238858286016141c9565b925050602083013567ffffffffffffffff81111561425957614258613caf565b5b614265858286016141c9565b9150509250929050565b6004811061427c57600080fd5b50565b60008135905061428e8161426f565b92915050565b600080600080608085870312156142ae576142ad613caa565b5b60006142bc87828801613cd5565b94505060206142cd87828801613d60565b93505060406142de87828801613cd5565b92505060606142ef8782880161427f565b91505092959194509250565b6000806040838503121561431257614311613caa565b5b600061432085828601613cd5565b925050602061433185828601613d60565b9150509250929050565b61434481613f0e565b82525050565b600060208201905061435f600083018461433b565b92915050565b6000806040838503121561437c5761437b613caa565b5b600061438a85828601613cd5565b925050602061439b85828601613cd5565b9150509250929050565b6000806000606084860312156143be576143bd613caa565b5b60006143cc86828701613cd5565b93505060206143dd86828701613d60565b92505060406143ee86828701613cd5565b9150509250925092565b61440181613cb4565b82525050565b600060208201905061441c60008301846143f8565b92915050565b600081519050919050565b600082825260208201905092915050565b6000819050602082019050919050565b600061445a8383613dce565b60208301905092915050565b6000602082019050919050565b600061447e82614422565b614488818561442d565b93506144938361443e565b8060005b838110156144c45781516144ab888261444e565b97506144b683614466565b925050600181019050614497565b5085935050505092915050565b600060208201905081810360008301526144eb8184614473565b905092915050565b60008060006060848603121561450c5761450b613caa565b5b600061451a86828701613cd5565b935050602061452b86828701613cd5565b925050604061453c86828701613d60565b9150509250925092565b6004811061455757614556613e76565b5b50565b600081905061456882614546565b919050565b60006145788261455a565b9050919050565b6145888161456d565b82525050565b60a0820160008201516145a46000850182613dce565b5060208201516145b76020850182613dce565b5060408201516145ca6040850182613dce565b5060608201516145dd6060850182613f1a565b5060808201516145f0608085018261457f565b50505050565b600060a08201905061460b600083018461458e565b92915050565b6000806040838503121561462857614627613caa565b5b600061463685828601613d60565b925050602061464785828601613cd5565b9150509250929050565b60006101408301600083015161466a6000860182613dce565b50602083015184820360208601526146828282613e3d565b9150506040830151848203604086015261469c8282613e3d565b91505060608301516146b16060860182613dce565b5060808301516146c46080860182613ede565b5060a08301516146d760a0860182613eff565b5060c08301516146ea60c0860182613eff565b5060e08301516146fd60e0860182613dce565b50610100830151614712610100860182613dce565b50610120830151614727610120860182613f1a565b508091505092915050565b6000602082019050818103600083015261474c8184614651565b905092915050565b60006020828403121561476a57614769613caa565b5b600082013567ffffffffffffffff81111561478857614787613caf565b5b614794848285016141c9565b91505092915050565b6147a681613d37565b82525050565b60006020820190506147c1600083018461479d565b92915050565b600082825260208201905092915050565b7f6f6e6c79207461736b2061737369676e65650000000000000000000000000000600082015250565b600061480e6012836147c7565b9150614819826147d8565b602082019050919050565b6000602082019050818103600083015261483d81614801565b9050919050565b7f5265656e7472616e637947756172643a207265656e7472616e742063616c6c00600082015250565b600061487a601f836147c7565b915061488582614844565b602082019050919050565b600060208201905081810360008301526148a98161486d565b9050919050565b7f5061757361626c653a2070617573656400000000000000000000000000000000600082015250565b60006148e66010836147c7565b91506148f1826148b0565b602082019050919050565b60006020820190508181036000830152614915816148d9565b9050919050565b7f7461736b206d75737420626520636f6d706c6574656400000000000000000000600082015250565b60006149526016836147c7565b915061495d8261491c565b602082019050919050565b6000602082019050818103600083015261498181614945565b9050919050565b7f7461736b20616c72656164792070616964000000000000000000000000000000600082015250565b60006149be6011836147c7565b91506149c982614988565b602082019050919050565b600060208201905081810360008301526149ed816149b1565b9050919050565b7f4e487b7100000000000000000000000000000000000000000000000000000000600052601160045260246000fd5b6000614a2e82613cb4565b9150614a3983613cb4565b925082821015614a4c57614a4b6149f4565b5b828203905092915050565b6000614a6282613cb4565b9150614a6d83613cb4565b9250827fffffffffffffffffffffffffffffffffffffffffffffffffffffffffffffffff03821115614aa257614aa16149f4565b5b828201905092915050565b600081905092915050565b50565b6000614ac8600083614aad565b9150614ad382614ab8565b600082019050919050565b6000614ae982614abb565b9150819050919050565b7f5472616e73666572206661696c65642100000000000000000000000000000000600082015250565b6000614b296010836147c7565b9150614b3482614af3565b602082019050919050565b60006020820190508181036000830152614b5881614b1c565b9050919050565b7f4e487b7100000000000000000000000000000000000000000000000000000000600052603260045260246000fd5b7f4e487b7100000000000000000000000000000000000000000000000000000000600052602260045260246000fd5b60006002820490506001821680614bd557607f821691505b602082108103614be857614be7614b8e565b5b50919050565b6000614bf982613cb4565b91507fffffffffffffffffffffffffffffffffffffffffffffffffffffffffffffffff8203614c2b57614c2a6149f4565b5b600182019050919050565b7f7265776172642063616e2774206265207a65726f000000000000000000000000600082015250565b6000614c6c6014836147c7565b9150614c7782614c36565b602082019050919050565b60006020820190508181036000830152614c9b81614c5f565b9050919050565b600081905092915050565b6000614cb882613ddd565b614cc28185614ca2565b9350614cd2818560208601613df9565b80840191505092915050565b6000614cea8284614cad565b915081905092915050565b6000614d0082613ddd565b614d0a81856147c7565b9350614d1a818560208601613df9565b614d2381613e2c565b840191505092915050565b614d3781613ecc565b82525050565b6000819050919050565b6000614d62614d5d614d5884613d17565b614d3d565b613d17565b9050919050565b6000614d7482614d47565b9050919050565b6000614d8682614d69565b9050919050565b614d9681614d7b565b82525050565b600061014082019050614db2600083018d6143f8565b8181036020830152614dc4818c614cf5565b90508181036040830152614dd8818b614cf5565b9050614de7606083018a6143f8565b614df46080830189614d2e565b614e0160a083018861479d565b614e0e60c0830187614d8d565b614e1b60e08301866143f8565b614e296101008301856143f8565b614e3761012083018461433b565b9b9a5050505050505050505050565b7f6f6e6c792061646d696e20616c6c6f7765640000000000000000000000000000600082015250565b6000614e7c6012836147c7565b9150614e8782614e46565b602082019050919050565b60006020820190508181036000830152614eab81614e6f565b9050919050565b7f7265736f6c766520666f72206f6e6c79207461736b206d656d62657273000000600082015250565b6000614ee8601d836147c7565b9150614ef382614eb2565b602082019050919050565b60006020820190508181036000830152614f1781614edb565b9050919050565b7f616c7265616479207265736f6c76656400000000000000000000000000000000600082015250565b6000614f546010836147c7565b9150614f5f82614f1e565b602082019050919050565b60006020820190508181036000830152614f8381614f47565b9050919050565b7f6f6e6c79206f70656e20636c61696d7300000000000000000000000000000000600082015250565b6000614fc06010836147c7565b9150614fcb82614f8a565b602082019050919050565b60006020820190508181036000830152614fef81614fb3565b9050919050565b7f6f6e6c79207461736b206f776e65720000000000000000000000000000000000600082015250565b600061502c600f836147c7565b915061503782614ff6565b602082019050919050565b6000602082019050818103600083015261505b8161501f565b9050919050565b7f6f6e6c79206e6577207461736b73000000000000000000000000000000000000600082015250565b6000615098600e836147c7565b91506150a382615062565b602082019050919050565b600060208201905081810360008301526150c78161508b565b9050919050565b60008190508160005260206000209050919050565b600081546150f081614bbd565b6150fa81866147c7565b9450600182166000811461511557600181146151275761515a565b60ff198316865260208601935061515a565b615130856150ce565b60005b8381101561515257815481890152600182019150602081019050615133565b808801955050505b50505092915050565b600061014082019050615179600083018d6143f8565b818103602083015261518b818c6150e3565b9050818103604083015261519f818b6150e3565b90506151ae606083018a6143f8565b6151bb6080830189614d2e565b6151c860a0830188614d8d565b6151d560c083018761479d565b6151e260e08301866143f8565b6151f06101008301856143f8565b6151fe61012083018461433b565b9b9a5050505050505050505050565b7f6665652070657263656e7420696e76616c696400000000000000000000000000600082015250565b60006152436013836147c7565b915061524e8261520d565b602082019050919050565b6000602082019050818103600083015261527281615236565b9050919050565b7f666565206261736520696e76616c696400000000000000000000000000000000600082015250565b60006152af6010836147c7565b91506152ba82615279565b602082019050919050565b600060208201905081810360008301526152de816152a2565b9050919050565b6000610140820190506152fb600083018d6143f8565b818103602083015261530d818c6150e3565b90508181036040830152615321818b6150e3565b9050615330606083018a6143f8565b61533d6080830189614d2e565b61534a60a0830188614d8d565b61535760c0830187614d8d565b61536460e08301866143f8565b6153726101008301856143f8565b61538061012083018461433b565b9b9a5050505050505050505050565b600061539a82613cb4565b91506153a583613cb4565b9250817fffffffffffffffffffffffffffffffffffffffffffffffffffffffffffffffff04831182151516156153de576153dd6149f4565b5b828202905092915050565b7f4e487b7100000000000000000000000000000000000000000000000000000000600052601260045260246000fd5b600061542382613cb4565b915061542e83613cb4565b92508261543e5761543d6153e9565b5b828204905092915050565b7f726566756e6420697320746f6f206c6172676500000000000000000000000000600082015250565b600061547f6013836147c7565b915061548a82615449565b602082019050919050565b600060208201905081810360008301526154ae81615472565b9050919050565b7f6f6e6c79207461736b206d656d62657273000000000000000000000000000000600082015250565b60006154eb6011836147c7565b91506154f6826154b5565b602082019050919050565b6000602082019050818103600083015261551a816154de565b9050919050565b7f636c61696d20746f206869676800000000000000000000000000000000000000600082015250565b6000615557600d836147c7565b915061556282615521565b602082019050919050565b600060208201905081810360008301526155868161554a565b9050919050565b7f7461736b206d7573742062652063616e63656c6c656400000000000000000000600082015250565b60006155c36016836147c7565b91506155ce8261558d565b602082019050919050565b600060208201905081810360008301526155f2816155b6565b9050919050565b7f6d757374206769766520616e20616d6f756e7400000000000000000000000000600082015250565b600061562f6013836147c7565b915061563a826155f9565b602082019050919050565b6000602082019050818103600083015261565e81615622565b9050919050565b7f616d6f756e7420746f6f206c6172676500000000000000000000000000000000600082015250565b600061569b6010836147c7565b91506156a682615665565b602082019050919050565b600060208201905081810360008301526156ca8161568e565b9050919050565b7f7461736b206d75737420626520696e2070726f67726573730000000000000000600082015250565b60006157076018836147c7565b9150615712826156d1565b602082019050919050565b60006020820190508181036000830152615736816156fa565b9050919050565b7f636f6d706c6574696f6e20616c72656164792072657175657374656400000000600082015250565b6000615773601c836147c7565b915061577e8261573d565b602082019050919050565b600060208201905081810360008301526157a281615766565b9050919050565b7f5061757361626c653a206e6f7420706175736564000000000000000000000000600082015250565b60006157df6014836147c7565b91506157ea826157a9565b602082019050919050565b6000602082019050818103600083015261580e816157d2565b905091905056fea26469706673582212205340ee23f6c4fa24c7491813872526770539565575c7e4a30a0e7c4ad7d79f2764736f6c634300080d0033",
  "linkReferences": {},
  "deployedLinkReferences": {}
}