{
  "_format": "hh-sol-artifact-1",
  "contractName": "Dask",
  "sourceName": "contracts/Dask.sol",
  "abi": [
    {
      "inputs": [
        {
          "internalType": "uint256",
          "name": "_feePercent",
          "type": "uint256"
        },
        {
          "internalType": "uint256",
          "name": "_feeBase",
          "type": "uint256"
        }
      ],
      "stateMutability": "nonpayable",
      "type": "constructor"
    },
    {
      "anonymous": false,
      "inputs": [
        {
          "indexed": false,
          "internalType": "address",
          "name": "account",
          "type": "address"
        }
      ],
      "name": "Paused",
      "type": "event"
    },
    {
      "anonymous": false,
      "inputs": [
        {
          "indexed": false,
          "internalType": "uint256",
          "name": "id",
          "type": "uint256"
        },
        {
          "indexed": false,
          "internalType": "string",
          "name": "name",
          "type": "string"
        },
        {
          "indexed": false,
          "internalType": "string",
          "name": "description",
          "type": "string"
        },
        {
          "indexed": false,
          "internalType": "uint256",
          "name": "reward",
          "type": "uint256"
        },
        {
          "indexed": false,
          "internalType": "enum Dask.Status",
          "name": "status",
          "type": "uint8"
        },
        {
          "indexed": false,
          "internalType": "address",
          "name": "owner",
          "type": "address"
        },
        {
          "indexed": false,
          "internalType": "address",
          "name": "assignee",
          "type": "address"
        },
        {
          "indexed": false,
          "internalType": "uint256",
          "name": "createdAt",
          "type": "uint256"
        },
        {
          "indexed": false,
          "internalType": "uint256",
          "name": "completedAt",
          "type": "uint256"
        },
        {
          "indexed": false,
          "internalType": "bool",
          "name": "paid",
          "type": "bool"
        }
      ],
      "name": "TaskAssigned",
      "type": "event"
    },
    {
      "anonymous": false,
      "inputs": [
        {
          "indexed": false,
          "internalType": "uint256",
          "name": "id",
          "type": "uint256"
        },
        {
          "indexed": false,
          "internalType": "string",
          "name": "name",
          "type": "string"
        },
        {
          "indexed": false,
          "internalType": "string",
          "name": "description",
          "type": "string"
        },
        {
          "indexed": false,
          "internalType": "uint256",
          "name": "reward",
          "type": "uint256"
        },
        {
          "indexed": false,
          "internalType": "enum Dask.Status",
          "name": "status",
          "type": "uint8"
        },
        {
          "indexed": false,
          "internalType": "address",
          "name": "owner",
          "type": "address"
        },
        {
          "indexed": false,
          "internalType": "address",
          "name": "assignee",
          "type": "address"
        },
        {
          "indexed": false,
          "internalType": "uint256",
          "name": "createdAt",
          "type": "uint256"
        },
        {
          "indexed": false,
          "internalType": "uint256",
          "name": "completedAt",
          "type": "uint256"
        },
        {
          "indexed": false,
          "internalType": "bool",
          "name": "paid",
          "type": "bool"
        }
      ],
      "name": "TaskCancelled",
      "type": "event"
    },
    {
      "anonymous": false,
      "inputs": [
        {
          "indexed": false,
          "internalType": "uint256",
          "name": "id",
          "type": "uint256"
        },
        {
          "indexed": false,
          "internalType": "string",
          "name": "name",
          "type": "string"
        },
        {
          "indexed": false,
          "internalType": "string",
          "name": "description",
          "type": "string"
        },
        {
          "indexed": false,
          "internalType": "uint256",
          "name": "reward",
          "type": "uint256"
        },
        {
          "indexed": false,
          "internalType": "enum Dask.Status",
          "name": "status",
          "type": "uint8"
        },
        {
          "indexed": false,
          "internalType": "address",
          "name": "owner",
          "type": "address"
        },
        {
          "indexed": false,
          "internalType": "address",
          "name": "assignee",
          "type": "address"
        },
        {
          "indexed": false,
          "internalType": "uint256",
          "name": "createdAt",
          "type": "uint256"
        },
        {
          "indexed": false,
          "internalType": "uint256",
          "name": "completedAt",
          "type": "uint256"
        },
        {
          "indexed": false,
          "internalType": "bool",
          "name": "paid",
          "type": "bool"
        }
      ],
      "name": "TaskCompleted",
      "type": "event"
    },
    {
      "anonymous": false,
      "inputs": [
        {
          "indexed": false,
          "internalType": "uint256",
          "name": "id",
          "type": "uint256"
        },
        {
          "indexed": false,
          "internalType": "string",
          "name": "name",
          "type": "string"
        },
        {
          "indexed": false,
          "internalType": "string",
          "name": "description",
          "type": "string"
        },
        {
          "indexed": false,
          "internalType": "uint256",
          "name": "reward",
          "type": "uint256"
        },
        {
          "indexed": false,
          "internalType": "enum Dask.Status",
          "name": "status",
          "type": "uint8"
        },
        {
          "indexed": false,
          "internalType": "address",
          "name": "owner",
          "type": "address"
        },
        {
          "indexed": false,
          "internalType": "address",
          "name": "assignee",
          "type": "address"
        },
        {
          "indexed": false,
          "internalType": "uint256",
          "name": "createdAt",
          "type": "uint256"
        },
        {
          "indexed": false,
          "internalType": "uint256",
          "name": "completedAt",
          "type": "uint256"
        },
        {
          "indexed": false,
          "internalType": "bool",
          "name": "paid",
          "type": "bool"
        }
      ],
      "name": "TaskCreated",
      "type": "event"
    },
    {
      "anonymous": false,
      "inputs": [
        {
          "indexed": false,
          "internalType": "address",
          "name": "account",
          "type": "address"
        }
      ],
      "name": "Unpaused",
      "type": "event"
    },
    {
      "inputs": [],
      "name": "admin",
      "outputs": [
        {
          "internalType": "address",
          "name": "",
          "type": "address"
        }
      ],
      "stateMutability": "view",
      "type": "function"
    },
    {
      "inputs": [
        {
          "internalType": "uint256",
          "name": "_taskId",
          "type": "uint256"
        },
        {
          "internalType": "address",
          "name": "_assignee",
          "type": "address"
        }
      ],
      "name": "assignTask",
      "outputs": [],
      "stateMutability": "nonpayable",
      "type": "function"
    },
    {
      "inputs": [
        {
          "internalType": "uint256",
          "name": "amount",
          "type": "uint256"
        }
      ],
      "name": "calculateFee",
      "outputs": [
        {
          "internalType": "uint256",
          "name": "",
          "type": "uint256"
        }
      ],
      "stateMutability": "view",
      "type": "function"
    },
    {
      "inputs": [
        {
          "internalType": "uint256",
          "name": "_taskId",
          "type": "uint256"
        }
      ],
      "name": "cancelTask",
      "outputs": [],
      "stateMutability": "nonpayable",
      "type": "function"
    },
    {
      "inputs": [
        {
          "internalType": "uint256",
          "name": "",
          "type": "uint256"
        },
        {
          "internalType": "address",
          "name": "",
          "type": "address"
        },
        {
          "internalType": "uint256",
          "name": "",
          "type": "uint256"
        }
      ],
      "name": "claims",
      "outputs": [
        {
          "internalType": "uint256",
          "name": "",
          "type": "uint256"
        }
      ],
      "stateMutability": "view",
      "type": "function"
    },
    {
      "inputs": [
        {
          "internalType": "address",
          "name": "",
          "type": "address"
        },
        {
          "internalType": "uint256",
          "name": "",
          "type": "uint256"
        }
      ],
      "name": "claimsByMember",
      "outputs": [
        {
          "internalType": "uint256",
          "name": "",
          "type": "uint256"
        }
      ],
      "stateMutability": "view",
      "type": "function"
    },
    {
      "inputs": [
        {
          "internalType": "uint256",
          "name": "_taskId",
          "type": "uint256"
        }
      ],
      "name": "completeTask",
      "outputs": [],
      "stateMutability": "nonpayable",
      "type": "function"
    },
    {
      "inputs": [
        {
          "internalType": "uint256",
          "name": "",
          "type": "uint256"
        },
        {
          "internalType": "address",
          "name": "",
          "type": "address"
        }
      ],
      "name": "completed",
      "outputs": [
        {
          "internalType": "bool",
          "name": "",
          "type": "bool"
        }
      ],
      "stateMutability": "view",
      "type": "function"
    },
    {
      "inputs": [
        {
          "internalType": "string",
          "name": "_name",
          "type": "string"
        },
        {
          "internalType": "string",
          "name": "_hash",
          "type": "string"
        }
      ],
      "name": "createTask",
      "outputs": [],
      "stateMutability": "payable",
      "type": "function"
    },
    {
      "inputs": [],
      "name": "feeBase",
      "outputs": [
        {
          "internalType": "uint256",
          "name": "",
          "type": "uint256"
        }
      ],
      "stateMutability": "view",
      "type": "function"
    },
    {
      "inputs": [],
      "name": "feePercent",
      "outputs": [
        {
          "internalType": "uint256",
          "name": "",
          "type": "uint256"
        }
      ],
      "stateMutability": "view",
      "type": "function"
    },
    {
      "inputs": [],
      "name": "fees",
      "outputs": [
        {
          "internalType": "uint256",
          "name": "",
          "type": "uint256"
        }
      ],
      "stateMutability": "view",
      "type": "function"
    },
    {
      "inputs": [
        {
          "internalType": "uint256",
          "name": "_claimId",
          "type": "uint256"
        }
      ],
      "name": "fetchClaimById",
      "outputs": [
        {
          "components": [
            {
              "internalType": "uint256",
              "name": "id",
              "type": "uint256"
            },
            {
              "internalType": "uint256",
              "name": "taskId",
              "type": "uint256"
            },
            {
              "internalType": "uint256",
              "name": "amount",
              "type": "uint256"
            },
            {
              "internalType": "bool",
              "name": "resolved",
              "type": "bool"
            },
            {
              "internalType": "enum Dask.ClaimResolution",
              "name": "resolution",
              "type": "uint8"
            }
          ],
          "internalType": "struct Dask.Claim",
          "name": "",
          "type": "tuple"
        }
      ],
      "stateMutability": "view",
      "type": "function"
    },
    {
      "inputs": [
        {
          "internalType": "string",
          "name": "_hash",
          "type": "string"
        }
      ],
      "name": "fetchTaskByHash",
      "outputs": [
        {
          "components": [
            {
              "internalType": "uint256",
              "name": "id",
              "type": "uint256"
            },
            {
              "internalType": "string",
              "name": "name",
              "type": "string"
            },
            {
              "internalType": "string",
              "name": "description",
              "type": "string"
            },
            {
              "internalType": "uint256",
              "name": "reward",
              "type": "uint256"
            },
            {
              "internalType": "enum Dask.Status",
              "name": "status",
              "type": "uint8"
            },
            {
              "internalType": "address payable",
              "name": "owner",
              "type": "address"
            },
            {
              "internalType": "address payable",
              "name": "assignee",
              "type": "address"
            },
            {
              "internalType": "uint256",
              "name": "createdAt",
              "type": "uint256"
            },
            {
              "internalType": "uint256",
              "name": "completedAt",
              "type": "uint256"
            },
            {
              "internalType": "bool",
              "name": "paid",
              "type": "bool"
            }
          ],
          "internalType": "struct Dask.Task",
          "name": "",
          "type": "tuple"
        }
      ],
      "stateMutability": "view",
      "type": "function"
    },
    {
      "inputs": [
        {
          "internalType": "uint256",
          "name": "_taskId",
          "type": "uint256"
        }
      ],
      "name": "fetchTaskById",
      "outputs": [
        {
          "components": [
            {
              "internalType": "uint256",
              "name": "id",
              "type": "uint256"
            },
            {
              "internalType": "string",
              "name": "name",
              "type": "string"
            },
            {
              "internalType": "string",
              "name": "description",
              "type": "string"
            },
            {
              "internalType": "uint256",
              "name": "reward",
              "type": "uint256"
            },
            {
              "internalType": "enum Dask.Status",
              "name": "status",
              "type": "uint8"
            },
            {
              "internalType": "address payable",
              "name": "owner",
              "type": "address"
            },
            {
              "internalType": "address payable",
              "name": "assignee",
              "type": "address"
            },
            {
              "internalType": "uint256",
              "name": "createdAt",
              "type": "uint256"
            },
            {
              "internalType": "uint256",
              "name": "completedAt",
              "type": "uint256"
            },
            {
              "internalType": "bool",
              "name": "paid",
              "type": "bool"
            }
          ],
          "internalType": "struct Dask.Task",
          "name": "",
          "type": "tuple"
        }
      ],
      "stateMutability": "view",
      "type": "function"
    },
    {
      "inputs": [
        {
          "internalType": "address",
          "name": "_member",
          "type": "address"
        }
      ],
      "name": "fetchTasksByMember",
      "outputs": [
        {
          "components": [
            {
              "internalType": "uint256",
              "name": "id",
              "type": "uint256"
            },
            {
              "internalType": "string",
              "name": "name",
              "type": "string"
            },
            {
              "internalType": "string",
              "name": "description",
              "type": "string"
            },
            {
              "internalType": "uint256",
              "name": "reward",
              "type": "uint256"
            },
            {
              "internalType": "enum Dask.Status",
              "name": "status",
              "type": "uint8"
            },
            {
              "internalType": "address payable",
              "name": "owner",
              "type": "address"
            },
            {
              "internalType": "address payable",
              "name": "assignee",
              "type": "address"
            },
            {
              "internalType": "uint256",
              "name": "createdAt",
              "type": "uint256"
            },
            {
              "internalType": "uint256",
              "name": "completedAt",
              "type": "uint256"
            },
            {
              "internalType": "bool",
              "name": "paid",
              "type": "bool"
            }
          ],
          "internalType": "struct Dask.Task[]",
          "name": "",
          "type": "tuple[]"
        }
      ],
      "stateMutability": "view",
      "type": "function"
    },
    {
      "inputs": [],
      "name": "pauseContract",
      "outputs": [],
      "stateMutability": "nonpayable",
      "type": "function"
    },
    {
      "inputs": [],
      "name": "paused",
      "outputs": [
        {
          "internalType": "bool",
          "name": "",
          "type": "bool"
        }
      ],
      "stateMutability": "view",
      "type": "function"
    },
    {
      "inputs": [
        {
          "internalType": "uint256",
          "name": "_taskId",
          "type": "uint256"
        },
        {
          "internalType": "uint256",
          "name": "_amount",
          "type": "uint256"
        }
      ],
      "name": "raiseClaim",
      "outputs": [],
      "stateMutability": "nonpayable",
      "type": "function"
    },
    {
      "inputs": [
        {
          "internalType": "uint256",
          "name": "_taskId",
          "type": "uint256"
        }
      ],
      "name": "recallReward",
      "outputs": [],
      "stateMutability": "nonpayable",
      "type": "function"
    },
    {
      "inputs": [
        {
          "internalType": "uint256",
          "name": "amount",
          "type": "uint256"
        },
        {
          "internalType": "uint256",
          "name": "_taskId",
          "type": "uint256"
        },
        {
          "internalType": "address",
          "name": "member",
          "type": "address"
        }
      ],
      "name": "refund",
      "outputs": [],
      "stateMutability": "nonpayable",
      "type": "function"
    },
    {
      "inputs": [
        {
          "internalType": "uint256",
          "name": "_taskId",
          "type": "uint256"
        },
        {
          "internalType": "address",
          "name": "_member",
          "type": "address"
        },
        {
          "internalType": "uint256",
          "name": "_claimId",
          "type": "uint256"
        },
        {
          "internalType": "enum Dask.ClaimResolution",
          "name": "_resolution",
          "type": "uint8"
        }
      ],
      "name": "settleClaim",
      "outputs": [],
      "stateMutability": "nonpayable",
      "type": "function"
    },
    {
      "inputs": [
        {
          "internalType": "uint256",
          "name": "amount",
          "type": "uint256"
        }
      ],
      "name": "takeFees",
      "outputs": [],
      "stateMutability": "nonpayable",
      "type": "function"
    },
    {
      "inputs": [
        {
          "internalType": "uint256",
          "name": "_taskId",
          "type": "uint256"
        }
      ],
      "name": "takeReward",
      "outputs": [],
      "stateMutability": "nonpayable",
      "type": "function"
    },
    {
      "inputs": [
        {
          "internalType": "address",
          "name": "",
          "type": "address"
        },
        {
          "internalType": "uint256",
          "name": "",
          "type": "uint256"
        }
      ],
      "name": "tasksByMember",
      "outputs": [
        {
          "internalType": "uint256",
          "name": "",
          "type": "uint256"
        }
      ],
      "stateMutability": "view",
      "type": "function"
    },
    {
      "inputs": [
        {
          "internalType": "address",
          "name": "_newAdmin",
          "type": "address"
        }
      ],
      "name": "transferOwnership",
      "outputs": [],
      "stateMutability": "nonpayable",
      "type": "function"
    },
    {
      "inputs": [],
      "name": "unpauseContract",
      "outputs": [],
      "stateMutability": "nonpayable",
      "type": "function"
    },
    {
      "inputs": [
        {
          "internalType": "uint256",
          "name": "_feePercent",
          "type": "uint256"
        },
        {
          "internalType": "uint256",
          "name": "_feeBase",
          "type": "uint256"
        }
      ],
      "name": "updateFees",
      "outputs": [],
      "stateMutability": "nonpayable",
      "type": "function"
    }
  ],
  "bytecode": "0x60806040523480156200001157600080fd5b506040516200591f3803806200591f83398181016040528101906200003791906200017c565b60016000819055506000600160006101000a81548160ff02191690831515021790555060008211620000a0576040517f08c379a0000000000000000000000000000000000000000000000000000000008152600401620000979062000224565b60405180910390fd5b60008111620000e6576040517f08c379a0000000000000000000000000000000000000000000000000000000008152600401620000dd9062000296565b60405180910390fd5b336001806101000a81548173ffffffffffffffffffffffffffffffffffffffff021916908373ffffffffffffffffffffffffffffffffffffffff16021790555081600481905550806005819055505050620002b8565b600080fd5b6000819050919050565b620001568162000141565b81146200016257600080fd5b50565b60008151905062000176816200014b565b92915050565b600080604083850312156200019657620001956200013c565b5b6000620001a68582860162000165565b9250506020620001b98582860162000165565b9150509250929050565b600082825260208201905092915050565b7f6665652070657263656e7420696e76616c696400000000000000000000000000600082015250565b60006200020c601383620001c3565b91506200021982620001d4565b602082019050919050565b600060208201905081810360008301526200023f81620001fd565b9050919050565b7f666565206261736520696e76616c696400000000000000000000000000000000600082015250565b60006200027e601083620001c3565b91506200028b8262000246565b602082019050919050565b60006020820190508181036000830152620002b1816200026f565b9050919050565b61565780620002c86000396000f3fe6080604052600436106101b75760003560e01c8063a3d07f67116100ec578063d6ca51291161008a578063e1e2955811610064578063e1e295581461060b578063f2fde38b14610634578063f851a4401461065d578063ffc4ed2514610688576101b7565b8063d6ca512914610554578063dfd6601014610591578063e0960e09146105ce576101b7565b8063b479a3a8116100c6578063b479a3a81461049c578063c26265d6146104c5578063cbb94359146104ee578063cda562f014610517576101b7565b8063a3d07f671461041f578063a3fdba9d14610448578063b33712c514610485576101b7565b80636db79437116101595780637fd6f15c116101335780637fd6f15c1461036157806395e911a81461038c57806399a5d747146103b75780639af1d35a146103f4576101b7565b80636db79437146102d2578063756bc503146102fb5780637eec20a814610338576101b7565b80633402f82d116101955780633402f82d1461023e578063439766ce146102675780635293ee811461027e5780635c975abb146102a7576101b7565b8063205b09f3146101bc5780632129b68b146101e5578063292a458514610222575b600080fd5b3480156101c857600080fd5b506101e360048036038101906101de9190613bc7565b6106c5565b005b3480156101f157600080fd5b5061020c60048036038101906102079190613c52565b610a06565b6040516102199190613f7d565b60405180910390f35b61023c600480360381019061023791906140d4565b610e41565b005b34801561024a57600080fd5b5061026560048036038101906102609190614171565b6110da565b005b34801561027357600080fd5b5061027c61164a565b005b34801561028a57600080fd5b506102a560048036038101906102a091906141d8565b6116e2565b005b3480156102b357600080fd5b506102bc6119f7565b6040516102c99190614227565b60405180910390f35b3480156102de57600080fd5b506102f960048036038101906102f49190614242565b611a0e565b005b34801561030757600080fd5b50610322600480360381019061031d9190614282565b611b7c565b60405161032f91906142e4565b60405180910390f35b34801561034457600080fd5b5061035f600480360381019061035a9190613bc7565b611bba565b005b34801561036d57600080fd5b50610376611e45565b60405161038391906142e4565b60405180910390f35b34801561039857600080fd5b506103a1611e4b565b6040516103ae91906142e4565b60405180910390f35b3480156103c357600080fd5b506103de60048036038101906103d99190613bc7565b611e51565b6040516103eb91906142e4565b60405180910390f35b34801561040057600080fd5b50610409611e75565b60405161041691906142e4565b60405180910390f35b34801561042b57600080fd5b50610446600480360381019061044191906142ff565b611e7b565b005b34801561045457600080fd5b5061046f600480360381019061046a9190613bc7565b6121ce565b60405161047c9190614402565b60405180910390f35b34801561049157600080fd5b5061049a61226f565b005b3480156104a857600080fd5b506104c360048036038101906104be9190614242565b612307565b005b3480156104d157600080fd5b506104ec60048036038101906104e79190613bc7565b612731565b005b3480156104fa57600080fd5b5061051560048036038101906105109190613bc7565b612a3d565b005b34801561052357600080fd5b5061053e6004803603810190610539919061441d565b612cb9565b60405161054b91906142e4565b60405180910390f35b34801561056057600080fd5b5061057b60048036038101906105769190613bc7565b612cea565b604051610588919061453e565b60405180910390f35b34801561059d57600080fd5b506105b860048036038101906105b3919061441d565b612f66565b6040516105c591906142e4565b60405180910390f35b3480156105da57600080fd5b506105f560048036038101906105f09190614560565b612f97565b604051610602919061453e565b60405180910390f35b34801561061757600080fd5b50610632600480360381019061062d9190613bc7565b613231565b005b34801561064057600080fd5b5061065b60048036038101906106569190613c52565b613770565b005b34801561066957600080fd5b50610672613841565b60405161067f91906145b8565b60405180910390f35b34801561069457600080fd5b506106af60048036038101906106aa91906141d8565b613865565b6040516106bc9190614227565b60405180910390f35b803373ffffffffffffffffffffffffffffffffffffffff166007600083815260200190815260200160002060050160009054906101000a900473ffffffffffffffffffffffffffffffffffffffff1673ffffffffffffffffffffffffffffffffffffffff161461076a576040517f08c379a000000000000000000000000000000000000000000000000000000000815260040161076190614630565b60405180910390fd5b6002600054036107af576040517f08c379a00000000000000000000000000000000000000000000000000000000081526004016107a69061469c565b60405180910390fd5b60026000819055506107bf6119f7565b156107ff576040517f08c379a00000000000000000000000000000000000000000000000000000000081526004016107f690614708565b60405180910390fd5b600060076000848152602001908152602001600020905060058081111561082957610828613d53565b5b8160040160009054906101000a900460ff16600581111561084d5761084c613d53565b5b1461088d576040517f08c379a000000000000000000000000000000000000000000000000000000000815260040161088490614774565b60405180910390fd5b600015158160080160009054906101000a900460ff161515146108e5576040517f08c379a00000000000000000000000000000000000000000000000000000000081526004016108dc906147e0565b60405180910390fd5b60006108f48260030154611e51565b90506000818360030154610908919061482f565b9050816006600082825461091c9190614863565b9250508190555060018360080160006101000a81548160ff0219169083151502179055506000836003018190555060003373ffffffffffffffffffffffffffffffffffffffff1682604051610970906148ea565b60006040518083038185875af1925050503d80600081146109ad576040519150601f19603f3d011682016040523d82523d6000602084013e6109b2565b606091505b50509050806109f6576040517f08c379a00000000000000000000000000000000000000000000000000000000081526004016109ed9061494b565b60405180910390fd5b5050505060016000819055505050565b60606000600c60008473ffffffffffffffffffffffffffffffffffffffff1673ffffffffffffffffffffffffffffffffffffffff1681526020019081526020016000208054905067ffffffffffffffff811115610a6657610a65613fa9565b5b604051908082528060200260200182016040528015610a9f57816020015b610a8c613a04565b815260200190600190039081610a845790505b50905060005b600c60008573ffffffffffffffffffffffffffffffffffffffff1673ffffffffffffffffffffffffffffffffffffffff16815260200190815260200160002080549050811015610e37576000600c60008673ffffffffffffffffffffffffffffffffffffffff1673ffffffffffffffffffffffffffffffffffffffff1681526020019081526020016000208281548110610b4257610b4161496b565b5b90600052602060002001549050604051806101400160405280828152602001600760008481526020019081526020016000206001018054610b82906149c9565b80601f0160208091040260200160405190810160405280929190818152602001828054610bae906149c9565b8015610bfb5780601f10610bd057610100808354040283529160200191610bfb565b820191906000526020600020905b815481529060010190602001808311610bde57829003601f168201915b50505050508152602001600760008481526020019081526020016000206002018054610c26906149c9565b80601f0160208091040260200160405190810160405280929190818152602001828054610c52906149c9565b8015610c9f5780601f10610c7457610100808354040283529160200191610c9f565b820191906000526020600020905b815481529060010190602001808311610c8257829003601f168201915b50505050508152602001600760008481526020019081526020016000206003015481526020016007600084815260200190815260200160002060040160009054906101000a900460ff166005811115610cfb57610cfa613d53565b5b81526020016007600084815260200190815260200160002060040160019054906101000a900473ffffffffffffffffffffffffffffffffffffffff1673ffffffffffffffffffffffffffffffffffffffff1681526020016007600084815260200190815260200160002060050160009054906101000a900473ffffffffffffffffffffffffffffffffffffffff1673ffffffffffffffffffffffffffffffffffffffff16815260200160076000848152602001908152602001600020600601548152602001600760008481526020019081526020016000206007015481526020016007600084815260200190815260200160002060080160009054906101000a900460ff161515815250838381518110610e1857610e1761496b565b5b6020026020010181905250508080610e2f906149fa565b915050610aa5565b5080915050919050565b610e496119f7565b15610e89576040517f08c379a0000000000000000000000000000000000000000000000000000000008152600401610e8090614708565b60405180910390fd5b60003411610ecc576040517f08c379a0000000000000000000000000000000000000000000000000000000008152600401610ec390614a8e565b60405180910390fd5b610ed66002613894565b6000610ee260026138aa565b9050600060076000838152602001908152602001600020905081816000018190555083816001019080519060200190610f1c929190613a97565b5082816002019080519060200190610f35929190613a97565b5034816003018190555060008160040160006101000a81548160ff02191690836005811115610f6757610f66613d53565b5b0217905550338160040160016101000a81548173ffffffffffffffffffffffffffffffffffffffff021916908373ffffffffffffffffffffffffffffffffffffffff16021790555042816006018190555081600884604051610fc99190614aea565b908152602001604051809103902081905550600c60003373ffffffffffffffffffffffffffffffffffffffff1673ffffffffffffffffffffffffffffffffffffffff1681526020019081526020016000208290806001815401808255809150506001900390600052602060002001600090919091909150557ff2802579e501c7f488e2591a434bdeadb914d88c97cd504843ef13956d177157828585348560040160009054906101000a900460ff16338760050160009054906101000a900473ffffffffffffffffffffffffffffffffffffffff164289600701548a60080160009054906101000a900460ff166040516110cc9a99989796959493929190614ba8565b60405180910390a150505050565b60018054906101000a900473ffffffffffffffffffffffffffffffffffffffff1673ffffffffffffffffffffffffffffffffffffffff163373ffffffffffffffffffffffffffffffffffffffff1614611168576040517f08c379a000000000000000000000000000000000000000000000000000000000815260040161115f90614c9e565b60405180910390fd5b6002600054036111ad576040517f08c379a00000000000000000000000000000000000000000000000000000000081526004016111a49061469c565b60405180910390fd5b60026000819055506111bd6119f7565b156111fd576040517f08c379a00000000000000000000000000000000000000000000000000000000081526004016111f490614708565b60405180910390fd5b60006007600086815260200190815260200160002090508373ffffffffffffffffffffffffffffffffffffffff168160040160019054906101000a900473ffffffffffffffffffffffffffffffffffffffff1673ffffffffffffffffffffffffffffffffffffffff1614806112c157508373ffffffffffffffffffffffffffffffffffffffff168160050160009054906101000a900473ffffffffffffffffffffffffffffffffffffffff1673ffffffffffffffffffffffffffffffffffffffff16145b611300576040517f08c379a00000000000000000000000000000000000000000000000000000000081526004016112f790614d0a565b60405180910390fd5b6000600a60008581526020019081526020016000209050600015158160030160009054906101000a900460ff1615151461136f576040517f08c379a000000000000000000000000000000000000000000000000000000000815260040161136690614d76565b60405180910390fd5b6000600381111561138357611382613d53565b5b8160030160019054906101000a900460ff1660038111156113a7576113a6613d53565b5b146113e7576040517f08c379a00000000000000000000000000000000000000000000000000000000081526004016113de90614de2565b60405180910390fd5b600160038111156113fb576113fa613d53565b5b83600381111561140e5761140d613d53565b5b0361156a5760006114228260020154611e51565b90506000818360020154611436919061482f565b9050816006600082825461144a9190614863565b925050819055508260020154846003016000828254611469919061482f565b9250508190555060018360030160006101000a81548160ff02191690831515021790555060018360030160016101000a81548160ff021916908360038111156114b5576114b4613d53565b5b021790555060008773ffffffffffffffffffffffffffffffffffffffff16826040516114e0906148ea565b60006040518083038185875af1925050503d806000811461151d576040519150601f19603f3d011682016040523d82523d6000602084013e611522565b606091505b5050905080611566576040517f08c379a000000000000000000000000000000000000000000000000000000000815260040161155d9061494b565b60405180910390fd5b5050505b6002600381111561157e5761157d613d53565b5b83600381111561159157611590613d53565b5b036115e15760018160030160006101000a81548160ff02191690831515021790555060028160030160016101000a81548160ff021916908360038111156115db576115da613d53565b5b02179055505b6003808111156115f4576115f3613d53565b5b83600381111561160757611606613d53565b5b0361163a5760038160030160016101000a81548160ff0219169083600381111561163457611633613d53565b5b02179055505b5050600160008190555050505050565b60018054906101000a900473ffffffffffffffffffffffffffffffffffffffff1673ffffffffffffffffffffffffffffffffffffffff163373ffffffffffffffffffffffffffffffffffffffff16146116d8576040517f08c379a00000000000000000000000000000000000000000000000000000000081526004016116cf90614c9e565b60405180910390fd5b6116e06138b8565b565b813373ffffffffffffffffffffffffffffffffffffffff166007600083815260200190815260200160002060040160019054906101000a900473ffffffffffffffffffffffffffffffffffffffff1673ffffffffffffffffffffffffffffffffffffffff1614611787576040517f08c379a000000000000000000000000000000000000000000000000000000000815260040161177e90614e4e565b60405180910390fd5b826000600581111561179c5761179b613d53565b5b6007600083815260200190815260200160002060040160009054906101000a900460ff1660058111156117d2576117d1613d53565b5b14611812576040517f08c379a000000000000000000000000000000000000000000000000000000000815260040161180990614eba565b60405180910390fd5b61181a6119f7565b1561185a576040517f08c379a000000000000000000000000000000000000000000000000000000000815260040161185190614708565b60405180910390fd5b6000600760008681526020019081526020016000209050838160050160006101000a81548173ffffffffffffffffffffffffffffffffffffffff021916908373ffffffffffffffffffffffffffffffffffffffff16021790555060018160040160006101000a81548160ff021916908360058111156118dc576118db613d53565b5b0217905550600c60008573ffffffffffffffffffffffffffffffffffffffff1673ffffffffffffffffffffffffffffffffffffffff168152602001908152602001600020816000015490806001815401808255809150506001900390600052602060002001600090919091909150557ffaf0b24ad95fe95fd3f179659ab3971ec24cbdf6fa09975fdcb37b6ac27c71208160000154826001018360020184600301548560040160009054906101000a900460ff168660040160019054906101000a900473ffffffffffffffffffffffffffffffffffffffff168a886006015489600701548a60080160009054906101000a900460ff166040516119e89a99989796959493929190614f6f565b60405180910390a15050505050565b6000600160009054906101000a900460ff16905090565b60018054906101000a900473ffffffffffffffffffffffffffffffffffffffff1673ffffffffffffffffffffffffffffffffffffffff163373ffffffffffffffffffffffffffffffffffffffff1614611a9c576040517f08c379a0000000000000000000000000000000000000000000000000000000008152600401611a9390614c9e565b60405180910390fd5b611aa46119f7565b15611ae4576040517f08c379a0000000000000000000000000000000000000000000000000000000008152600401611adb90614708565b60405180910390fd5b60008211611b27576040517f08c379a0000000000000000000000000000000000000000000000000000000008152600401611b1e90615065565b60405180910390fd5b60008111611b6a576040517f08c379a0000000000000000000000000000000000000000000000000000000008152600401611b61906150d1565b60405180910390fd5b81600481905550806005819055505050565b600b6020528260005260406000206020528160005260406000208181548110611ba457600080fd5b9060005260206000200160009250925050505481565b803373ffffffffffffffffffffffffffffffffffffffff166007600083815260200190815260200160002060040160019054906101000a900473ffffffffffffffffffffffffffffffffffffffff1673ffffffffffffffffffffffffffffffffffffffff1614611c5f576040517f08c379a0000000000000000000000000000000000000000000000000000000008152600401611c5690614e4e565b60405180910390fd5b8160006005811115611c7457611c73613d53565b5b6007600083815260200190815260200160002060040160009054906101000a900460ff166005811115611caa57611ca9613d53565b5b14611cea576040517f08c379a0000000000000000000000000000000000000000000000000000000008152600401611ce190614eba565b60405180910390fd5b611cf26119f7565b15611d32576040517f08c379a0000000000000000000000000000000000000000000000000000000008152600401611d2990614708565b60405180910390fd5b600060076000858152602001908152602001600020905060038160040160006101000a81548160ff02191690836005811115611d7157611d70613d53565b5b02179055507f146625cade83d66314bf5798afe66f128b45efb2e3f87bbf2a75a40fd61536ce8160000154826001018360020184600301548560040160009054906101000a900460ff168660040160019054906101000a900473ffffffffffffffffffffffffffffffffffffffff168760050160009054906101000a900473ffffffffffffffffffffffffffffffffffffffff16886006015489600701548a60080160009054906101000a900460ff16604051611e379a999897969594939291906150f1565b60405180910390a150505050565b60045481565b60055481565b600060055460045483611e64919061519b565b611e6e9190615224565b9050919050565b60065481565b60018054906101000a900473ffffffffffffffffffffffffffffffffffffffff1673ffffffffffffffffffffffffffffffffffffffff163373ffffffffffffffffffffffffffffffffffffffff1614611f09576040517f08c379a0000000000000000000000000000000000000000000000000000000008152600401611f0090614c9e565b60405180910390fd5b600260005403611f4e576040517f08c379a0000000000000000000000000000000000000000000000000000000008152600401611f459061469c565b60405180910390fd5b60026000819055506000600760008481526020019081526020016000209050600015158160080160009054906101000a900460ff16151514611fc5576040517f08c379a0000000000000000000000000000000000000000000000000000000008152600401611fbc906147e0565b60405180910390fd5b838160030154101561200c576040517f08c379a0000000000000000000000000000000000000000000000000000000008152600401612003906152a1565b60405180910390fd5b8173ffffffffffffffffffffffffffffffffffffffff168160040160019054906101000a900473ffffffffffffffffffffffffffffffffffffffff1673ffffffffffffffffffffffffffffffffffffffff1614806120b957508173ffffffffffffffffffffffffffffffffffffffff168160050160009054906101000a900473ffffffffffffffffffffffffffffffffffffffff1673ffffffffffffffffffffffffffffffffffffffff16145b6120f8576040517f08c379a00000000000000000000000000000000000000000000000000000000081526004016120ef9061530d565b60405180910390fd5b8381600301600082825461210c919061482f565b9250508190555060008273ffffffffffffffffffffffffffffffffffffffff1685604051612139906148ea565b60006040518083038185875af1925050503d8060008114612176576040519150601f19603f3d011682016040523d82523d6000602084013e61217b565b606091505b50509050806121bf576040517f08c379a00000000000000000000000000000000000000000000000000000000081526004016121b69061494b565b60405180910390fd5b50506001600081905550505050565b6121d6613b1d565b600a60008381526020019081526020016000206040518060a00160405290816000820154815260200160018201548152602001600282015481526020016003820160009054906101000a900460ff161515151581526020016003820160019054906101000a900460ff16600381111561225257612251613d53565b5b600381111561226457612263613d53565b5b815250509050919050565b60018054906101000a900473ffffffffffffffffffffffffffffffffffffffff1673ffffffffffffffffffffffffffffffffffffffff163373ffffffffffffffffffffffffffffffffffffffff16146122fd576040517f08c379a00000000000000000000000000000000000000000000000000000000081526004016122f490614c9e565b60405180910390fd5b61230561395a565b565b8160006007600083815260200190815260200160002090508060040160019054906101000a900473ffffffffffffffffffffffffffffffffffffffff1673ffffffffffffffffffffffffffffffffffffffff163373ffffffffffffffffffffffffffffffffffffffff1614806123cc57508060050160009054906101000a900473ffffffffffffffffffffffffffffffffffffffff1673ffffffffffffffffffffffffffffffffffffffff163373ffffffffffffffffffffffffffffffffffffffff16145b61240b576040517f08c379a00000000000000000000000000000000000000000000000000000000081526004016124029061530d565b60405180910390fd5b6000600760008681526020019081526020016000209050600015158160080160009054906101000a900460ff1615151461247a576040517f08c379a0000000000000000000000000000000000000000000000000000000008152600401612471906147e0565b60405180910390fd5b83816003015410156124c1576040517f08c379a00000000000000000000000000000000000000000000000000000000081526004016124b890615379565b60405180910390fd5b6000805b600b600088815260200190815260200160002060003373ffffffffffffffffffffffffffffffffffffffff1673ffffffffffffffffffffffffffffffffffffffff168152602001908152602001600020805490508110156125c9576000600b600089815260200190815260200160002060003373ffffffffffffffffffffffffffffffffffffffff1673ffffffffffffffffffffffffffffffffffffffff16815260200190815260200160002082815481106125845761258361496b565b5b90600052602060002001549050600a600082815260200190815260200160002060020154836125b39190614863565b92505080806125c1906149fa565b9150506124c5565b50848183600301546125db919061482f565b101561261c576040517f08c379a000000000000000000000000000000000000000000000000000000000815260040161261390615379565b60405180910390fd5b6126266003613894565b600061263260036138aa565b90506000600a6000838152602001908152602001600020905081816000018190555087816001018190555086816002018190555060008160030160006101000a81548160ff02191690831515021790555060008160030160016101000a81548160ff021916908360038111156126ab576126aa613d53565b5b0217905550600b600089815260200190815260200160002060003373ffffffffffffffffffffffffffffffffffffffff1673ffffffffffffffffffffffffffffffffffffffff1681526020019081526020016000208290806001815401808255809150506001900390600052602060002001600090919091909150555050505050505050565b803373ffffffffffffffffffffffffffffffffffffffff166007600083815260200190815260200160002060040160019054906101000a900473ffffffffffffffffffffffffffffffffffffffff1673ffffffffffffffffffffffffffffffffffffffff16146127d6576040517f08c379a00000000000000000000000000000000000000000000000000000000081526004016127cd90614e4e565b60405180910390fd5b60026000540361281b576040517f08c379a00000000000000000000000000000000000000000000000000000000081526004016128129061469c565b60405180910390fd5b600260008190555061282b6119f7565b1561286b576040517f08c379a000000000000000000000000000000000000000000000000000000000815260040161286290614708565b60405180910390fd5b60006007600084815260200190815260200160002090506003600581111561289657612895613d53565b5b8160040160009054906101000a900460ff1660058111156128ba576128b9613d53565b5b146128fa576040517f08c379a00000000000000000000000000000000000000000000000000000000081526004016128f1906153e5565b60405180910390fd5b600015158160080160009054906101000a900460ff16151514612952576040517f08c379a0000000000000000000000000000000000000000000000000000000008152600401612949906147e0565b60405180910390fd5b60008160030154905060018260080160006101000a81548160ff0219169083151502179055506000826003018190555060003373ffffffffffffffffffffffffffffffffffffffff16826040516129a8906148ea565b60006040518083038185875af1925050503d80600081146129e5576040519150601f19603f3d011682016040523d82523d6000602084013e6129ea565b606091505b5050905080612a2e576040517f08c379a0000000000000000000000000000000000000000000000000000000008152600401612a259061494b565b60405180910390fd5b50505060016000819055505050565b60018054906101000a900473ffffffffffffffffffffffffffffffffffffffff1673ffffffffffffffffffffffffffffffffffffffff163373ffffffffffffffffffffffffffffffffffffffff1614612acb576040517f08c379a0000000000000000000000000000000000000000000000000000000008152600401612ac290614c9e565b60405180910390fd5b600260005403612b10576040517f08c379a0000000000000000000000000000000000000000000000000000000008152600401612b079061469c565b60405180910390fd5b6002600081905550612b206119f7565b15612b60576040517f08c379a0000000000000000000000000000000000000000000000000000000008152600401612b5790614708565b60405180910390fd5b60008111612ba3576040517f08c379a0000000000000000000000000000000000000000000000000000000008152600401612b9a90615451565b60405180910390fd5b806006541015612be8576040517f08c379a0000000000000000000000000000000000000000000000000000000008152600401612bdf906154bd565b60405180910390fd5b8060066000828254612bfa919061482f565b9250508190555060003373ffffffffffffffffffffffffffffffffffffffff1682604051612c27906148ea565b60006040518083038185875af1925050503d8060008114612c64576040519150601f19603f3d011682016040523d82523d6000602084013e612c69565b606091505b5050905080612cad576040517f08c379a0000000000000000000000000000000000000000000000000000000008152600401612ca49061494b565b60405180910390fd5b50600160008190555050565b600c6020528160005260406000208181548110612cd557600080fd5b90600052602060002001600091509150505481565b612cf2613a04565b600760008381526020019081526020016000206040518061014001604052908160008201548152602001600182018054612d2b906149c9565b80601f0160208091040260200160405190810160405280929190818152602001828054612d57906149c9565b8015612da45780601f10612d7957610100808354040283529160200191612da4565b820191906000526020600020905b815481529060010190602001808311612d8757829003601f168201915b50505050508152602001600282018054612dbd906149c9565b80601f0160208091040260200160405190810160405280929190818152602001828054612de9906149c9565b8015612e365780601f10612e0b57610100808354040283529160200191612e36565b820191906000526020600020905b815481529060010190602001808311612e1957829003601f168201915b50505050508152602001600382015481526020016004820160009054906101000a900460ff166005811115612e6e57612e6d613d53565b5b6005811115612e8057612e7f613d53565b5b81526020016004820160019054906101000a900473ffffffffffffffffffffffffffffffffffffffff1673ffffffffffffffffffffffffffffffffffffffff1673ffffffffffffffffffffffffffffffffffffffff1681526020016005820160009054906101000a900473ffffffffffffffffffffffffffffffffffffffff1673ffffffffffffffffffffffffffffffffffffffff1673ffffffffffffffffffffffffffffffffffffffff16815260200160068201548152602001600782015481526020016008820160009054906101000a900460ff1615151515815250509050919050565b600d6020528160005260406000208181548110612f8257600080fd5b90600052602060002001600091509150505481565b612f9f613a04565b60076000600884604051612fb39190614aea565b90815260200160405180910390205481526020019081526020016000206040518061014001604052908160008201548152602001600182018054612ff6906149c9565b80601f0160208091040260200160405190810160405280929190818152602001828054613022906149c9565b801561306f5780601f106130445761010080835404028352916020019161306f565b820191906000526020600020905b81548152906001019060200180831161305257829003601f168201915b50505050508152602001600282018054613088906149c9565b80601f01602080910402602001604051908101604052809291908181526020018280546130b4906149c9565b80156131015780601f106130d657610100808354040283529160200191613101565b820191906000526020600020905b8154815290600101906020018083116130e457829003601f168201915b50505050508152602001600382015481526020016004820160009054906101000a900460ff16600581111561313957613138613d53565b5b600581111561314b5761314a613d53565b5b81526020016004820160019054906101000a900473ffffffffffffffffffffffffffffffffffffffff1673ffffffffffffffffffffffffffffffffffffffff1673ffffffffffffffffffffffffffffffffffffffff1681526020016005820160009054906101000a900473ffffffffffffffffffffffffffffffffffffffff1673ffffffffffffffffffffffffffffffffffffffff1673ffffffffffffffffffffffffffffffffffffffff16815260200160068201548152602001600782015481526020016008820160009054906101000a900460ff1615151515815250509050919050565b8060006007600083815260200190815260200160002090508060040160019054906101000a900473ffffffffffffffffffffffffffffffffffffffff1673ffffffffffffffffffffffffffffffffffffffff163373ffffffffffffffffffffffffffffffffffffffff1614806132f657508060050160009054906101000a900473ffffffffffffffffffffffffffffffffffffffff1673ffffffffffffffffffffffffffffffffffffffff163373ffffffffffffffffffffffffffffffffffffffff16145b613335576040517f08c379a000000000000000000000000000000000000000000000000000000000815260040161332c9061530d565b60405180910390fd5b61333d6119f7565b1561337d576040517f08c379a000000000000000000000000000000000000000000000000000000000815260040161337490614708565b60405180910390fd5b6000600760008581526020019081526020016000209050600260058111156133a8576133a7613d53565b5b8160040160009054906101000a900460ff1660058111156133cc576133cb613d53565b5b148061340d5750600160058111156133e7576133e6613d53565b5b8160040160009054906101000a900460ff16600581111561340b5761340a613d53565b5b145b61344c576040517f08c379a000000000000000000000000000000000000000000000000000000000815260040161344390615529565b60405180910390fd5b600015156009600086815260200190815260200160002060003373ffffffffffffffffffffffffffffffffffffffff1673ffffffffffffffffffffffffffffffffffffffff16815260200190815260200160002060009054906101000a900460ff161515146134f0576040517f08c379a00000000000000000000000000000000000000000000000000000000081526004016134e790615595565b60405180910390fd5b60016009600086815260200190815260200160002060003373ffffffffffffffffffffffffffffffffffffffff1673ffffffffffffffffffffffffffffffffffffffff16815260200190815260200160002060006101000a81548160ff0219169083151502179055506009600085815260200190815260200160002060008260040160019054906101000a900473ffffffffffffffffffffffffffffffffffffffff1673ffffffffffffffffffffffffffffffffffffffff1673ffffffffffffffffffffffffffffffffffffffff16815260200190815260200160002060009054906101000a900460ff16801561366557506009600085815260200190815260200160002060008260050160009054906101000a900473ffffffffffffffffffffffffffffffffffffffff1673ffffffffffffffffffffffffffffffffffffffff1673ffffffffffffffffffffffffffffffffffffffff16815260200190815260200160002060009054906101000a900460ff165b1561376a5742816007018190555060058160040160006101000a81548160ff0219169083600581111561369b5761369a613d53565b5b02179055507f86fa5311dcb386f9d0416fe46a79bff692c8e250a85a3a6653c4ed3d11a9a6c98160000154826001018360020184600301548560040160009054906101000a900460ff168660040160019054906101000a900473ffffffffffffffffffffffffffffffffffffffff168760050160009054906101000a900473ffffffffffffffffffffffffffffffffffffffff16886006015489600701548a60080160009054906101000a900460ff166040516137619a999897969594939291906150f1565b60405180910390a15b50505050565b60018054906101000a900473ffffffffffffffffffffffffffffffffffffffff1673ffffffffffffffffffffffffffffffffffffffff163373ffffffffffffffffffffffffffffffffffffffff16146137fe576040517f08c379a00000000000000000000000000000000000000000000000000000000081526004016137f590614c9e565b60405180910390fd5b806001806101000a81548173ffffffffffffffffffffffffffffffffffffffff021916908373ffffffffffffffffffffffffffffffffffffffff16021790555050565b60018054906101000a900473ffffffffffffffffffffffffffffffffffffffff1681565b60096020528160005260406000206020528060005260406000206000915091509054906101000a900460ff1681565b6001816000016000828254019250508190555050565b600081600001549050919050565b6138c06119f7565b15613900576040517f08c379a00000000000000000000000000000000000000000000000000000000081526004016138f790614708565b60405180910390fd5b60018060006101000a81548160ff0219169083151502179055507f62e78cea01bee320cd4e420270b5ea74000d11b0c9f74754ebdbfc544b05a2586139436139fc565b60405161395091906145b8565b60405180910390a1565b6139626119f7565b6139a1576040517f08c379a000000000000000000000000000000000000000000000000000000000815260040161399890615601565b60405180910390fd5b6000600160006101000a81548160ff0219169083151502179055507f5db9ee0a495bf2e6ff9c91a7834c1ba4fdd244a5e8aa4e537bd38aeae4b073aa6139e56139fc565b6040516139f291906145b8565b60405180910390a1565b600033905090565b6040518061014001604052806000815260200160608152602001606081526020016000815260200160006005811115613a4057613a3f613d53565b5b8152602001600073ffffffffffffffffffffffffffffffffffffffff168152602001600073ffffffffffffffffffffffffffffffffffffffff16815260200160008152602001600081526020016000151581525090565b828054613aa3906149c9565b90600052602060002090601f016020900481019282613ac55760008555613b0c565b82601f10613ade57805160ff1916838001178555613b0c565b82800160010185558215613b0c579182015b82811115613b0b578251825591602001919060010190613af0565b5b509050613b199190613b60565b5090565b6040518060a0016040528060008152602001600081526020016000815260200160001515815260200160006003811115613b5a57613b59613d53565b5b81525090565b5b80821115613b79576000816000905550600101613b61565b5090565b6000604051905090565b600080fd5b600080fd5b6000819050919050565b613ba481613b91565b8114613baf57600080fd5b50565b600081359050613bc181613b9b565b92915050565b600060208284031215613bdd57613bdc613b87565b5b6000613beb84828501613bb2565b91505092915050565b600073ffffffffffffffffffffffffffffffffffffffff82169050919050565b6000613c1f82613bf4565b9050919050565b613c2f81613c14565b8114613c3a57600080fd5b50565b600081359050613c4c81613c26565b92915050565b600060208284031215613c6857613c67613b87565b5b6000613c7684828501613c3d565b91505092915050565b600081519050919050565b600082825260208201905092915050565b6000819050602082019050919050565b613cb481613b91565b82525050565b600081519050919050565b600082825260208201905092915050565b60005b83811015613cf4578082015181840152602081019050613cd9565b83811115613d03576000848401525b50505050565b6000601f19601f8301169050919050565b6000613d2582613cba565b613d2f8185613cc5565b9350613d3f818560208601613cd6565b613d4881613d09565b840191505092915050565b7f4e487b7100000000000000000000000000000000000000000000000000000000600052602160045260246000fd5b60068110613d9357613d92613d53565b5b50565b6000819050613da482613d82565b919050565b6000613db482613d96565b9050919050565b613dc481613da9565b82525050565b6000613dd582613bf4565b9050919050565b613de581613dca565b82525050565b60008115159050919050565b613e0081613deb565b82525050565b600061014083016000830151613e1f6000860182613cab565b5060208301518482036020860152613e378282613d1a565b91505060408301518482036040860152613e518282613d1a565b9150506060830151613e666060860182613cab565b506080830151613e796080860182613dbb565b5060a0830151613e8c60a0860182613ddc565b5060c0830151613e9f60c0860182613ddc565b5060e0830151613eb260e0860182613cab565b50610100830151613ec7610100860182613cab565b50610120830151613edc610120860182613df7565b508091505092915050565b6000613ef38383613e06565b905092915050565b6000602082019050919050565b6000613f1382613c7f565b613f1d8185613c8a565b935083602082028501613f2f85613c9b565b8060005b85811015613f6b5784840389528151613f4c8582613ee7565b9450613f5783613efb565b925060208a01995050600181019050613f33565b50829750879550505050505092915050565b60006020820190508181036000830152613f978184613f08565b905092915050565b600080fd5b600080fd5b7f4e487b7100000000000000000000000000000000000000000000000000000000600052604160045260246000fd5b613fe182613d09565b810181811067ffffffffffffffff8211171561400057613fff613fa9565b5b80604052505050565b6000614013613b7d565b905061401f8282613fd8565b919050565b600067ffffffffffffffff82111561403f5761403e613fa9565b5b61404882613d09565b9050602081019050919050565b82818337600083830152505050565b600061407761407284614024565b614009565b90508281526020810184848401111561409357614092613fa4565b5b61409e848285614055565b509392505050565b600082601f8301126140bb576140ba613f9f565b5b81356140cb848260208601614064565b91505092915050565b600080604083850312156140eb576140ea613b87565b5b600083013567ffffffffffffffff81111561410957614108613b8c565b5b614115858286016140a6565b925050602083013567ffffffffffffffff81111561413657614135613b8c565b5b614142858286016140a6565b9150509250929050565b6004811061415957600080fd5b50565b60008135905061416b8161414c565b92915050565b6000806000806080858703121561418b5761418a613b87565b5b600061419987828801613bb2565b94505060206141aa87828801613c3d565b93505060406141bb87828801613bb2565b92505060606141cc8782880161415c565b91505092959194509250565b600080604083850312156141ef576141ee613b87565b5b60006141fd85828601613bb2565b925050602061420e85828601613c3d565b9150509250929050565b61422181613deb565b82525050565b600060208201905061423c6000830184614218565b92915050565b6000806040838503121561425957614258613b87565b5b600061426785828601613bb2565b925050602061427885828601613bb2565b9150509250929050565b60008060006060848603121561429b5761429a613b87565b5b60006142a986828701613bb2565b93505060206142ba86828701613c3d565b92505060406142cb86828701613bb2565b9150509250925092565b6142de81613b91565b82525050565b60006020820190506142f960008301846142d5565b92915050565b60008060006060848603121561431857614317613b87565b5b600061432686828701613bb2565b935050602061433786828701613bb2565b925050604061434886828701613c3d565b9150509250925092565b6004811061436357614362613d53565b5b50565b600081905061437482614352565b919050565b600061438482614366565b9050919050565b61439481614379565b82525050565b60a0820160008201516143b06000850182613cab565b5060208201516143c36020850182613cab565b5060408201516143d66040850182613cab565b5060608201516143e96060850182613df7565b5060808201516143fc608085018261438b565b50505050565b600060a082019050614417600083018461439a565b92915050565b6000806040838503121561443457614433613b87565b5b600061444285828601613c3d565b925050602061445385828601613bb2565b9150509250929050565b6000610140830160008301516144766000860182613cab565b506020830151848203602086015261448e8282613d1a565b915050604083015184820360408601526144a88282613d1a565b91505060608301516144bd6060860182613cab565b5060808301516144d06080860182613dbb565b5060a08301516144e360a0860182613ddc565b5060c08301516144f660c0860182613ddc565b5060e083015161450960e0860182613cab565b5061010083015161451e610100860182613cab565b50610120830151614533610120860182613df7565b508091505092915050565b60006020820190508181036000830152614558818461445d565b905092915050565b60006020828403121561457657614575613b87565b5b600082013567ffffffffffffffff81111561459457614593613b8c565b5b6145a0848285016140a6565b91505092915050565b6145b281613c14565b82525050565b60006020820190506145cd60008301846145a9565b92915050565b600082825260208201905092915050565b7f6f6e6c79207461736b2061737369676e65650000000000000000000000000000600082015250565b600061461a6012836145d3565b9150614625826145e4565b602082019050919050565b600060208201905081810360008301526146498161460d565b9050919050565b7f5265656e7472616e637947756172643a207265656e7472616e742063616c6c00600082015250565b6000614686601f836145d3565b915061469182614650565b602082019050919050565b600060208201905081810360008301526146b581614679565b9050919050565b7f5061757361626c653a2070617573656400000000000000000000000000000000600082015250565b60006146f26010836145d3565b91506146fd826146bc565b602082019050919050565b60006020820190508181036000830152614721816146e5565b9050919050565b7f7461736b206d75737420626520636f6d706c6574656400000000000000000000600082015250565b600061475e6016836145d3565b915061476982614728565b602082019050919050565b6000602082019050818103600083015261478d81614751565b9050919050565b7f7461736b20616c72656164792070616964000000000000000000000000000000600082015250565b60006147ca6011836145d3565b91506147d582614794565b602082019050919050565b600060208201905081810360008301526147f9816147bd565b9050919050565b7f4e487b7100000000000000000000000000000000000000000000000000000000600052601160045260246000fd5b600061483a82613b91565b915061484583613b91565b92508282101561485857614857614800565b5b828203905092915050565b600061486e82613b91565b915061487983613b91565b9250827fffffffffffffffffffffffffffffffffffffffffffffffffffffffffffffffff038211156148ae576148ad614800565b5b828201905092915050565b600081905092915050565b50565b60006148d46000836148b9565b91506148df826148c4565b600082019050919050565b60006148f5826148c7565b9150819050919050565b7f5472616e73666572206661696c65642100000000000000000000000000000000600082015250565b60006149356010836145d3565b9150614940826148ff565b602082019050919050565b6000602082019050818103600083015261496481614928565b9050919050565b7f4e487b7100000000000000000000000000000000000000000000000000000000600052603260045260246000fd5b7f4e487b7100000000000000000000000000000000000000000000000000000000600052602260045260246000fd5b600060028204905060018216806149e157607f821691505b6020821081036149f4576149f361499a565b5b50919050565b6000614a0582613b91565b91507fffffffffffffffffffffffffffffffffffffffffffffffffffffffffffffffff8203614a3757614a36614800565b5b600182019050919050565b7f7265776172642063616e2774206265207a65726f000000000000000000000000600082015250565b6000614a786014836145d3565b9150614a8382614a42565b602082019050919050565b60006020820190508181036000830152614aa781614a6b565b9050919050565b600081905092915050565b6000614ac482613cba565b614ace8185614aae565b9350614ade818560208601613cd6565b80840191505092915050565b6000614af68284614ab9565b915081905092915050565b6000614b0c82613cba565b614b1681856145d3565b9350614b26818560208601613cd6565b614b2f81613d09565b840191505092915050565b614b4381613da9565b82525050565b6000819050919050565b6000614b6e614b69614b6484613bf4565b614b49565b613bf4565b9050919050565b6000614b8082614b53565b9050919050565b6000614b9282614b75565b9050919050565b614ba281614b87565b82525050565b600061014082019050614bbe600083018d6142d5565b8181036020830152614bd0818c614b01565b90508181036040830152614be4818b614b01565b9050614bf3606083018a6142d5565b614c006080830189614b3a565b614c0d60a08301886145a9565b614c1a60c0830187614b99565b614c2760e08301866142d5565b614c356101008301856142d5565b614c43610120830184614218565b9b9a5050505050505050505050565b7f6f6e6c792061646d696e20616c6c6f7765640000000000000000000000000000600082015250565b6000614c886012836145d3565b9150614c9382614c52565b602082019050919050565b60006020820190508181036000830152614cb781614c7b565b9050919050565b7f7265736f6c766520666f72206f6e6c79207461736b206d656d62657273000000600082015250565b6000614cf4601d836145d3565b9150614cff82614cbe565b602082019050919050565b60006020820190508181036000830152614d2381614ce7565b9050919050565b7f616c7265616479207265736f6c76656400000000000000000000000000000000600082015250565b6000614d606010836145d3565b9150614d6b82614d2a565b602082019050919050565b60006020820190508181036000830152614d8f81614d53565b9050919050565b7f6f6e6c79206f70656e20636c61696d7300000000000000000000000000000000600082015250565b6000614dcc6010836145d3565b9150614dd782614d96565b602082019050919050565b60006020820190508181036000830152614dfb81614dbf565b9050919050565b7f6f6e6c79207461736b206f776e65720000000000000000000000000000000000600082015250565b6000614e38600f836145d3565b9150614e4382614e02565b602082019050919050565b60006020820190508181036000830152614e6781614e2b565b9050919050565b7f6f6e6c79206e6577207461736b73000000000000000000000000000000000000600082015250565b6000614ea4600e836145d3565b9150614eaf82614e6e565b602082019050919050565b60006020820190508181036000830152614ed381614e97565b9050919050565b60008190508160005260206000209050919050565b60008154614efc816149c9565b614f0681866145d3565b94506001821660008114614f215760018114614f3357614f66565b60ff1983168652602086019350614f66565b614f3c85614eda565b60005b83811015614f5e57815481890152600182019150602081019050614f3f565b808801955050505b50505092915050565b600061014082019050614f85600083018d6142d5565b8181036020830152614f97818c614eef565b90508181036040830152614fab818b614eef565b9050614fba606083018a6142d5565b614fc76080830189614b3a565b614fd460a0830188614b99565b614fe160c08301876145a9565b614fee60e08301866142d5565b614ffc6101008301856142d5565b61500a610120830184614218565b9b9a5050505050505050505050565b7f6665652070657263656e7420696e76616c696400000000000000000000000000600082015250565b600061504f6013836145d3565b915061505a82615019565b602082019050919050565b6000602082019050818103600083015261507e81615042565b9050919050565b7f666565206261736520696e76616c696400000000000000000000000000000000600082015250565b60006150bb6010836145d3565b91506150c682615085565b602082019050919050565b600060208201905081810360008301526150ea816150ae565b9050919050565b600061014082019050615107600083018d6142d5565b8181036020830152615119818c614eef565b9050818103604083015261512d818b614eef565b905061513c606083018a6142d5565b6151496080830189614b3a565b61515660a0830188614b99565b61516360c0830187614b99565b61517060e08301866142d5565b61517e6101008301856142d5565b61518c610120830184614218565b9b9a5050505050505050505050565b60006151a682613b91565b91506151b183613b91565b9250817fffffffffffffffffffffffffffffffffffffffffffffffffffffffffffffffff04831182151516156151ea576151e9614800565b5b828202905092915050565b7f4e487b7100000000000000000000000000000000000000000000000000000000600052601260045260246000fd5b600061522f82613b91565b915061523a83613b91565b92508261524a576152496151f5565b5b828204905092915050565b7f726566756e6420697320746f6f206c6172676500000000000000000000000000600082015250565b600061528b6013836145d3565b915061529682615255565b602082019050919050565b600060208201905081810360008301526152ba8161527e565b9050919050565b7f6f6e6c79207461736b206d656d62657273000000000000000000000000000000600082015250565b60006152f76011836145d3565b9150615302826152c1565b602082019050919050565b60006020820190508181036000830152615326816152ea565b9050919050565b7f636c61696d20746f206869676800000000000000000000000000000000000000600082015250565b6000615363600d836145d3565b915061536e8261532d565b602082019050919050565b6000602082019050818103600083015261539281615356565b9050919050565b7f7461736b206d7573742062652063616e63656c6c656400000000000000000000600082015250565b60006153cf6016836145d3565b91506153da82615399565b602082019050919050565b600060208201905081810360008301526153fe816153c2565b9050919050565b7f6d757374206769766520616e20616d6f756e7400000000000000000000000000600082015250565b600061543b6013836145d3565b915061544682615405565b602082019050919050565b6000602082019050818103600083015261546a8161542e565b9050919050565b7f616d6f756e7420746f6f206c6172676500000000000000000000000000000000600082015250565b60006154a76010836145d3565b91506154b282615471565b602082019050919050565b600060208201905081810360008301526154d68161549a565b9050919050565b7f7461736b206d75737420626520696e2070726f67726573730000000000000000600082015250565b60006155136018836145d3565b915061551e826154dd565b602082019050919050565b6000602082019050818103600083015261554281615506565b9050919050565b7f636f6d706c6574696f6e20616c72656164792072657175657374656400000000600082015250565b600061557f601c836145d3565b915061558a82615549565b602082019050919050565b600060208201905081810360008301526155ae81615572565b9050919050565b7f5061757361626c653a206e6f7420706175736564000000000000000000000000600082015250565b60006155eb6014836145d3565b91506155f6826155b5565b602082019050919050565b6000602082019050818103600083015261561a816155de565b905091905056fea2646970667358221220323c88e448f827798c1024615fd1477725f96ac3f40d33ccc85e8e8aa2ce2fb764736f6c634300080d0033",
  "linkReferences": {},
  "deployedLinkReferences": {}
}