{
  "_format": "hh-sol-artifact-1",
  "contractName": "Dask",
  "sourceName": "contracts/Dask.sol",
  "abi": [
    {
      "inputs": [
        {
          "internalType": "uint256",
          "name": "_feePercent",
          "type": "uint256"
        },
        {
          "internalType": "uint256",
          "name": "_feeBase",
          "type": "uint256"
        }
      ],
      "stateMutability": "nonpayable",
      "type": "constructor"
    },
    {
      "anonymous": false,
      "inputs": [
        {
          "indexed": false,
          "internalType": "address",
          "name": "account",
          "type": "address"
        }
      ],
      "name": "Paused",
      "type": "event"
    },
    {
      "anonymous": false,
      "inputs": [
        {
          "indexed": false,
          "internalType": "uint256",
          "name": "id",
          "type": "uint256"
        },
        {
          "indexed": false,
          "internalType": "address",
          "name": "owner",
          "type": "address"
        },
        {
          "indexed": false,
          "internalType": "address",
          "name": "assignee",
          "type": "address"
        }
      ],
      "name": "TaskAssigned",
      "type": "event"
    },
    {
      "anonymous": false,
      "inputs": [
        {
          "indexed": false,
          "internalType": "uint256",
          "name": "id",
          "type": "uint256"
        }
      ],
      "name": "TaskCancelled",
      "type": "event"
    },
    {
      "anonymous": false,
      "inputs": [
        {
          "indexed": false,
          "internalType": "uint256",
          "name": "id",
          "type": "uint256"
        }
      ],
      "name": "TaskCompleted",
      "type": "event"
    },
    {
      "anonymous": false,
      "inputs": [
        {
          "indexed": false,
          "internalType": "uint256",
          "name": "id",
          "type": "uint256"
        },
        {
          "indexed": false,
          "internalType": "string",
          "name": "name",
          "type": "string"
        },
        {
          "indexed": false,
          "internalType": "string",
          "name": "description",
          "type": "string"
        },
        {
          "indexed": false,
          "internalType": "uint256",
          "name": "reward",
          "type": "uint256"
        },
        {
          "indexed": false,
          "internalType": "address",
          "name": "owner",
          "type": "address"
        },
        {
          "indexed": false,
          "internalType": "uint256",
          "name": "createdAt",
          "type": "uint256"
        }
      ],
      "name": "TaskCreated",
      "type": "event"
    },
    {
      "anonymous": false,
      "inputs": [
        {
          "indexed": false,
          "internalType": "address",
          "name": "account",
          "type": "address"
        }
      ],
      "name": "Unpaused",
      "type": "event"
    },
    {
      "inputs": [],
      "name": "admin",
      "outputs": [
        {
          "internalType": "address",
          "name": "",
          "type": "address"
        }
      ],
      "stateMutability": "view",
      "type": "function"
    },
    {
      "inputs": [
        {
          "internalType": "uint256",
          "name": "_taskId",
          "type": "uint256"
        },
        {
          "internalType": "address",
          "name": "_assignee",
          "type": "address"
        }
      ],
      "name": "assignTask",
      "outputs": [],
      "stateMutability": "nonpayable",
      "type": "function"
    },
    {
      "inputs": [
        {
          "internalType": "uint256",
          "name": "amount",
          "type": "uint256"
        }
      ],
      "name": "calculateFee",
      "outputs": [
        {
          "internalType": "uint256",
          "name": "",
          "type": "uint256"
        }
      ],
      "stateMutability": "view",
      "type": "function"
    },
    {
      "inputs": [
        {
          "internalType": "uint256",
          "name": "_taskId",
          "type": "uint256"
        }
      ],
      "name": "cancelTask",
      "outputs": [],
      "stateMutability": "nonpayable",
      "type": "function"
    },
    {
      "inputs": [
        {
          "internalType": "uint256",
          "name": "",
          "type": "uint256"
        },
        {
          "internalType": "address",
          "name": "",
          "type": "address"
        },
        {
          "internalType": "uint256",
          "name": "",
          "type": "uint256"
        }
      ],
      "name": "claims",
      "outputs": [
        {
          "internalType": "uint256",
          "name": "",
          "type": "uint256"
        }
      ],
      "stateMutability": "view",
      "type": "function"
    },
    {
      "inputs": [
        {
          "internalType": "address",
          "name": "",
          "type": "address"
        },
        {
          "internalType": "uint256",
          "name": "",
          "type": "uint256"
        }
      ],
      "name": "claimsByMember",
      "outputs": [
        {
          "internalType": "uint256",
          "name": "",
          "type": "uint256"
        }
      ],
      "stateMutability": "view",
      "type": "function"
    },
    {
      "inputs": [
        {
          "internalType": "uint256",
          "name": "_taskId",
          "type": "uint256"
        }
      ],
      "name": "completeTask",
      "outputs": [],
      "stateMutability": "nonpayable",
      "type": "function"
    },
    {
      "inputs": [
        {
          "internalType": "uint256",
          "name": "",
          "type": "uint256"
        },
        {
          "internalType": "address",
          "name": "",
          "type": "address"
        }
      ],
      "name": "completed",
      "outputs": [
        {
          "internalType": "bool",
          "name": "",
          "type": "bool"
        }
      ],
      "stateMutability": "view",
      "type": "function"
    },
    {
      "inputs": [
        {
          "internalType": "string",
          "name": "_name",
          "type": "string"
        },
        {
          "internalType": "string",
          "name": "_hash",
          "type": "string"
        },
        {
          "internalType": "uint256",
          "name": "_completeUntil",
          "type": "uint256"
        }
      ],
      "name": "createTask",
      "outputs": [],
      "stateMutability": "payable",
      "type": "function"
    },
    {
      "inputs": [],
      "name": "feeBase",
      "outputs": [
        {
          "internalType": "uint256",
          "name": "",
          "type": "uint256"
        }
      ],
      "stateMutability": "view",
      "type": "function"
    },
    {
      "inputs": [],
      "name": "feePercent",
      "outputs": [
        {
          "internalType": "uint256",
          "name": "",
          "type": "uint256"
        }
      ],
      "stateMutability": "view",
      "type": "function"
    },
    {
      "inputs": [],
      "name": "fees",
      "outputs": [
        {
          "internalType": "uint256",
          "name": "",
          "type": "uint256"
        }
      ],
      "stateMutability": "view",
      "type": "function"
    },
    {
      "inputs": [
        {
          "internalType": "uint256",
          "name": "_claimId",
          "type": "uint256"
        }
      ],
      "name": "fetchClaimById",
      "outputs": [
        {
          "components": [
            {
              "internalType": "uint256",
              "name": "id",
              "type": "uint256"
            },
            {
              "internalType": "uint256",
              "name": "taskId",
              "type": "uint256"
            },
            {
              "internalType": "uint256",
              "name": "amount",
              "type": "uint256"
            },
            {
              "internalType": "bool",
              "name": "resolved",
              "type": "bool"
            },
            {
              "internalType": "enum Dask.ClaimResolution",
              "name": "resolution",
              "type": "uint8"
            }
          ],
          "internalType": "struct Dask.Claim",
          "name": "",
          "type": "tuple"
        }
      ],
      "stateMutability": "view",
      "type": "function"
    },
    {
      "inputs": [
        {
          "internalType": "string",
          "name": "_hash",
          "type": "string"
        }
      ],
      "name": "fetchTaskByHash",
      "outputs": [
        {
          "components": [
            {
              "internalType": "uint256",
              "name": "id",
              "type": "uint256"
            },
            {
              "internalType": "string",
              "name": "name",
              "type": "string"
            },
            {
              "internalType": "string",
              "name": "description",
              "type": "string"
            },
            {
              "internalType": "uint256",
              "name": "reward",
              "type": "uint256"
            },
            {
              "internalType": "enum Dask.Status",
              "name": "status",
              "type": "uint8"
            },
            {
              "internalType": "address payable",
              "name": "owner",
              "type": "address"
            },
            {
              "internalType": "address payable",
              "name": "assignee",
              "type": "address"
            },
            {
              "internalType": "uint256",
              "name": "completeUntil",
              "type": "uint256"
            },
            {
              "internalType": "uint256",
              "name": "createdAt",
              "type": "uint256"
            },
            {
              "internalType": "uint256",
              "name": "completedAt",
              "type": "uint256"
            },
            {
              "internalType": "bool",
              "name": "paid",
              "type": "bool"
            }
          ],
          "internalType": "struct Dask.Task",
          "name": "",
          "type": "tuple"
        }
      ],
      "stateMutability": "view",
      "type": "function"
    },
    {
      "inputs": [
        {
          "internalType": "uint256",
          "name": "_taskId",
          "type": "uint256"
        }
      ],
      "name": "fetchTaskById",
      "outputs": [
        {
          "components": [
            {
              "internalType": "uint256",
              "name": "id",
              "type": "uint256"
            },
            {
              "internalType": "string",
              "name": "name",
              "type": "string"
            },
            {
              "internalType": "string",
              "name": "description",
              "type": "string"
            },
            {
              "internalType": "uint256",
              "name": "reward",
              "type": "uint256"
            },
            {
              "internalType": "enum Dask.Status",
              "name": "status",
              "type": "uint8"
            },
            {
              "internalType": "address payable",
              "name": "owner",
              "type": "address"
            },
            {
              "internalType": "address payable",
              "name": "assignee",
              "type": "address"
            },
            {
              "internalType": "uint256",
              "name": "completeUntil",
              "type": "uint256"
            },
            {
              "internalType": "uint256",
              "name": "createdAt",
              "type": "uint256"
            },
            {
              "internalType": "uint256",
              "name": "completedAt",
              "type": "uint256"
            },
            {
              "internalType": "bool",
              "name": "paid",
              "type": "bool"
            }
          ],
          "internalType": "struct Dask.Task",
          "name": "",
          "type": "tuple"
        }
      ],
      "stateMutability": "view",
      "type": "function"
    },
    {
      "inputs": [
        {
          "internalType": "address",
          "name": "_member",
          "type": "address"
        }
      ],
      "name": "fetchTasksByMember",
      "outputs": [
        {
          "components": [
            {
              "internalType": "uint256",
              "name": "id",
              "type": "uint256"
            },
            {
              "internalType": "string",
              "name": "name",
              "type": "string"
            },
            {
              "internalType": "string",
              "name": "description",
              "type": "string"
            },
            {
              "internalType": "uint256",
              "name": "reward",
              "type": "uint256"
            },
            {
              "internalType": "enum Dask.Status",
              "name": "status",
              "type": "uint8"
            },
            {
              "internalType": "address payable",
              "name": "owner",
              "type": "address"
            },
            {
              "internalType": "address payable",
              "name": "assignee",
              "type": "address"
            },
            {
              "internalType": "uint256",
              "name": "completeUntil",
              "type": "uint256"
            },
            {
              "internalType": "uint256",
              "name": "createdAt",
              "type": "uint256"
            },
            {
              "internalType": "uint256",
              "name": "completedAt",
              "type": "uint256"
            },
            {
              "internalType": "bool",
              "name": "paid",
              "type": "bool"
            }
          ],
          "internalType": "struct Dask.Task[]",
          "name": "",
          "type": "tuple[]"
        }
      ],
      "stateMutability": "view",
      "type": "function"
    },
    {
      "inputs": [],
      "name": "pauseContract",
      "outputs": [],
      "stateMutability": "nonpayable",
      "type": "function"
    },
    {
      "inputs": [],
      "name": "paused",
      "outputs": [
        {
          "internalType": "bool",
          "name": "",
          "type": "bool"
        }
      ],
      "stateMutability": "view",
      "type": "function"
    },
    {
      "inputs": [
        {
          "internalType": "uint256",
          "name": "_taskId",
          "type": "uint256"
        },
        {
          "internalType": "uint256",
          "name": "_amount",
          "type": "uint256"
        }
      ],
      "name": "raiseClaim",
      "outputs": [],
      "stateMutability": "nonpayable",
      "type": "function"
    },
    {
      "inputs": [
        {
          "internalType": "uint256",
          "name": "_taskId",
          "type": "uint256"
        }
      ],
      "name": "recallReward",
      "outputs": [],
      "stateMutability": "nonpayable",
      "type": "function"
    },
    {
      "inputs": [
        {
          "internalType": "uint256",
          "name": "amount",
          "type": "uint256"
        },
        {
          "internalType": "uint256",
          "name": "_taskId",
          "type": "uint256"
        },
        {
          "internalType": "address",
          "name": "member",
          "type": "address"
        }
      ],
      "name": "refund",
      "outputs": [],
      "stateMutability": "nonpayable",
      "type": "function"
    },
    {
      "inputs": [
        {
          "internalType": "uint256",
          "name": "_taskId",
          "type": "uint256"
        },
        {
          "internalType": "address",
          "name": "_member",
          "type": "address"
        },
        {
          "internalType": "uint256",
          "name": "_claimId",
          "type": "uint256"
        },
        {
          "internalType": "enum Dask.ClaimResolution",
          "name": "_resolution",
          "type": "uint8"
        }
      ],
      "name": "settleClaim",
      "outputs": [],
      "stateMutability": "nonpayable",
      "type": "function"
    },
    {
      "inputs": [
        {
          "internalType": "uint256",
          "name": "amount",
          "type": "uint256"
        }
      ],
      "name": "takeFees",
      "outputs": [],
      "stateMutability": "nonpayable",
      "type": "function"
    },
    {
      "inputs": [
        {
          "internalType": "uint256",
          "name": "_taskId",
          "type": "uint256"
        }
      ],
      "name": "takeReward",
      "outputs": [],
      "stateMutability": "nonpayable",
      "type": "function"
    },
    {
      "inputs": [
        {
          "internalType": "address",
          "name": "",
          "type": "address"
        },
        {
          "internalType": "uint256",
          "name": "",
          "type": "uint256"
        }
      ],
      "name": "tasksByMember",
      "outputs": [
        {
          "internalType": "uint256",
          "name": "",
          "type": "uint256"
        }
      ],
      "stateMutability": "view",
      "type": "function"
    },
    {
      "inputs": [
        {
          "internalType": "address",
          "name": "_newAdmin",
          "type": "address"
        }
      ],
      "name": "transferOwnership",
      "outputs": [],
      "stateMutability": "nonpayable",
      "type": "function"
    },
    {
      "inputs": [],
      "name": "unpauseContract",
      "outputs": [],
      "stateMutability": "nonpayable",
      "type": "function"
    },
    {
      "inputs": [
        {
          "internalType": "uint256",
          "name": "_feePercent",
          "type": "uint256"
        },
        {
          "internalType": "uint256",
          "name": "_feeBase",
          "type": "uint256"
        }
      ],
      "name": "updateFees",
      "outputs": [],
      "stateMutability": "nonpayable",
      "type": "function"
    }
  ],
  "bytecode": "0x60806040523480156200001157600080fd5b506040516200557b3803806200557b83398181016040528101906200003791906200017c565b60016000819055506000600160006101000a81548160ff02191690831515021790555060008211620000a0576040517f08c379a0000000000000000000000000000000000000000000000000000000008152600401620000979062000224565b60405180910390fd5b60008111620000e6576040517f08c379a0000000000000000000000000000000000000000000000000000000008152600401620000dd9062000296565b60405180910390fd5b336001806101000a81548173ffffffffffffffffffffffffffffffffffffffff021916908373ffffffffffffffffffffffffffffffffffffffff16021790555081600481905550806005819055505050620002b8565b600080fd5b6000819050919050565b620001568162000141565b81146200016257600080fd5b50565b60008151905062000176816200014b565b92915050565b600080604083850312156200019657620001956200013c565b5b6000620001a68582860162000165565b9250506020620001b98582860162000165565b9150509250929050565b600082825260208201905092915050565b7f6665652070657263656e7420696e76616c696400000000000000000000000000600082015250565b60006200020c601383620001c3565b91506200021982620001d4565b602082019050919050565b600060208201905081810360008301526200023f81620001fd565b9050919050565b7f666565206261736520696e76616c696400000000000000000000000000000000600082015250565b60006200027e601083620001c3565b91506200028b8262000246565b602082019050919050565b60006020820190508181036000830152620002b1816200026f565b9050919050565b6152b380620002c86000396000f3fe6080604052600436106101b75760003560e01c8063a3d07f67116100ec578063d6ca51291161008a578063e1e2955811610064578063e1e295581461060b578063f2fde38b14610634578063f851a4401461065d578063ffc4ed2514610688576101b7565b8063d6ca512914610554578063dfd6601014610591578063e0960e09146105ce576101b7565b8063b479a3a8116100c6578063b479a3a81461049c578063c26265d6146104c5578063cbb94359146104ee578063cda562f014610517576101b7565b8063a3d07f671461041f578063a3fdba9d14610448578063b33712c514610485576101b7565b80636db79437116101595780637fd6f15c116101335780637fd6f15c1461036157806395e911a81461038c57806399a5d747146103b75780639af1d35a146103f4576101b7565b80636db79437146102d2578063756bc503146102fb5780637eec20a814610338576101b7565b806341a4e30a1161019557806341a4e30a1461024b578063439766ce146102675780635293ee811461027e5780635c975abb146102a7576101b7565b8063205b09f3146101bc5780632129b68b146101e55780633402f82d14610222575b600080fd5b3480156101c857600080fd5b506101e360048036038101906101de91906139e2565b6106c5565b005b3480156101f157600080fd5b5061020c60048036038101906102079190613a6d565b610a06565b6040516102199190613dad565b60405180910390f35b34801561022e57600080fd5b5061024960048036038101906102449190613df4565b610e5d565b005b61026560048036038101906102609190613f90565b6113cd565b005b34801561027357600080fd5b5061027c61161e565b005b34801561028a57600080fd5b506102a560048036038101906102a0919061401b565b6116b6565b005b3480156102b357600080fd5b506102bc611989565b6040516102c9919061406a565b60405180910390f35b3480156102de57600080fd5b506102f960048036038101906102f49190614085565b6119a0565b005b34801561030757600080fd5b50610322600480360381019061031d91906140c5565b611b0e565b60405161032f9190614127565b60405180910390f35b34801561034457600080fd5b5061035f600480360381019061035a91906139e2565b611b4c565b005b34801561036d57600080fd5b50610376611d0e565b6040516103839190614127565b60405180910390f35b34801561039857600080fd5b506103a1611d14565b6040516103ae9190614127565b60405180910390f35b3480156103c357600080fd5b506103de60048036038101906103d991906139e2565b611d1a565b6040516103eb9190614127565b60405180910390f35b34801561040057600080fd5b50610409611d3e565b6040516104169190614127565b60405180910390f35b34801561042b57600080fd5b5061044660048036038101906104419190614142565b611d44565b005b34801561045457600080fd5b5061046f600480360381019061046a91906139e2565b612097565b60405161047c9190614245565b60405180910390f35b34801561049157600080fd5b5061049a612138565b005b3480156104a857600080fd5b506104c360048036038101906104be9190614085565b6121d0565b005b3480156104d157600080fd5b506104ec60048036038101906104e791906139e2565b6125fa565b005b3480156104fa57600080fd5b50610515600480360381019061051091906139e2565b612906565b005b34801561052357600080fd5b5061053e60048036038101906105399190614260565b612b82565b60405161054b9190614127565b60405180910390f35b34801561056057600080fd5b5061057b600480360381019061057691906139e2565b612bb3565b6040516105889190614396565b60405180910390f35b34801561059d57600080fd5b506105b860048036038101906105b39190614260565b612e39565b6040516105c59190614127565b60405180910390f35b3480156105da57600080fd5b506105f560048036038101906105f091906143b8565b612e6a565b6040516106029190614396565b60405180910390f35b34801561061757600080fd5b50610632600480360381019061062d91906139e2565b61310e565b005b34801561064057600080fd5b5061065b60048036038101906106569190613a6d565b613584565b005b34801561066957600080fd5b50610672613655565b60405161067f9190614410565b60405180910390f35b34801561069457600080fd5b506106af60048036038101906106aa919061401b565b613679565b6040516106bc919061406a565b60405180910390f35b803373ffffffffffffffffffffffffffffffffffffffff166007600083815260200190815260200160002060050160009054906101000a900473ffffffffffffffffffffffffffffffffffffffff1673ffffffffffffffffffffffffffffffffffffffff161461076a576040517f08c379a000000000000000000000000000000000000000000000000000000000815260040161076190614488565b60405180910390fd5b6002600054036107af576040517f08c379a00000000000000000000000000000000000000000000000000000000081526004016107a6906144f4565b60405180910390fd5b60026000819055506107bf611989565b156107ff576040517f08c379a00000000000000000000000000000000000000000000000000000000081526004016107f690614560565b60405180910390fd5b600060076000848152602001908152602001600020905060058081111561082957610828613b6e565b5b8160040160009054906101000a900460ff16600581111561084d5761084c613b6e565b5b1461088d576040517f08c379a0000000000000000000000000000000000000000000000000000000008152600401610884906145cc565b60405180910390fd5b600015158160090160009054906101000a900460ff161515146108e5576040517f08c379a00000000000000000000000000000000000000000000000000000000081526004016108dc90614638565b60405180910390fd5b60006108f48260030154611d1a565b905060008183600301546109089190614687565b9050816006600082825461091c91906146bb565b9250508190555060018360090160006101000a81548160ff0219169083151502179055506000836003018190555060003373ffffffffffffffffffffffffffffffffffffffff168260405161097090614742565b60006040518083038185875af1925050503d80600081146109ad576040519150601f19603f3d011682016040523d82523d6000602084013e6109b2565b606091505b50509050806109f6576040517f08c379a00000000000000000000000000000000000000000000000000000000081526004016109ed906147a3565b60405180910390fd5b5050505060016000819055505050565b60606000600c60008473ffffffffffffffffffffffffffffffffffffffff1673ffffffffffffffffffffffffffffffffffffffff1681526020019081526020016000208054905067ffffffffffffffff811115610a6657610a65613e65565b5b604051908082528060200260200182016040528015610a9f57816020015b610a8c613818565b815260200190600190039081610a845790505b50905060005b600c60008573ffffffffffffffffffffffffffffffffffffffff1673ffffffffffffffffffffffffffffffffffffffff16815260200190815260200160002080549050811015610e53576000600c60008673ffffffffffffffffffffffffffffffffffffffff1673ffffffffffffffffffffffffffffffffffffffff1681526020019081526020016000208281548110610b4257610b416147c3565b5b90600052602060002001549050604051806101600160405280828152602001600760008481526020019081526020016000206001018054610b8290614821565b80601f0160208091040260200160405190810160405280929190818152602001828054610bae90614821565b8015610bfb5780601f10610bd057610100808354040283529160200191610bfb565b820191906000526020600020905b815481529060010190602001808311610bde57829003601f168201915b50505050508152602001600760008481526020019081526020016000206002018054610c2690614821565b80601f0160208091040260200160405190810160405280929190818152602001828054610c5290614821565b8015610c9f5780601f10610c7457610100808354040283529160200191610c9f565b820191906000526020600020905b815481529060010190602001808311610c8257829003601f168201915b50505050508152602001600760008481526020019081526020016000206003015481526020016007600084815260200190815260200160002060040160009054906101000a900460ff166005811115610cfb57610cfa613b6e565b5b81526020016007600084815260200190815260200160002060040160019054906101000a900473ffffffffffffffffffffffffffffffffffffffff1673ffffffffffffffffffffffffffffffffffffffff1681526020016007600084815260200190815260200160002060050160009054906101000a900473ffffffffffffffffffffffffffffffffffffffff1673ffffffffffffffffffffffffffffffffffffffff1681526020016007600084815260200190815260200160002060060154815260200160076000848152602001908152602001600020600701548152602001600760008481526020019081526020016000206008015481526020016007600084815260200190815260200160002060090160009054906101000a900460ff161515815250838381518110610e3457610e336147c3565b5b6020026020010181905250508080610e4b90614852565b915050610aa5565b5080915050919050565b60018054906101000a900473ffffffffffffffffffffffffffffffffffffffff1673ffffffffffffffffffffffffffffffffffffffff163373ffffffffffffffffffffffffffffffffffffffff1614610eeb576040517f08c379a0000000000000000000000000000000000000000000000000000000008152600401610ee2906148e6565b60405180910390fd5b600260005403610f30576040517f08c379a0000000000000000000000000000000000000000000000000000000008152600401610f27906144f4565b60405180910390fd5b6002600081905550610f40611989565b15610f80576040517f08c379a0000000000000000000000000000000000000000000000000000000008152600401610f7790614560565b60405180910390fd5b60006007600086815260200190815260200160002090508373ffffffffffffffffffffffffffffffffffffffff168160040160019054906101000a900473ffffffffffffffffffffffffffffffffffffffff1673ffffffffffffffffffffffffffffffffffffffff16148061104457508373ffffffffffffffffffffffffffffffffffffffff168160050160009054906101000a900473ffffffffffffffffffffffffffffffffffffffff1673ffffffffffffffffffffffffffffffffffffffff16145b611083576040517f08c379a000000000000000000000000000000000000000000000000000000000815260040161107a90614952565b60405180910390fd5b6000600a60008581526020019081526020016000209050600015158160030160009054906101000a900460ff161515146110f2576040517f08c379a00000000000000000000000000000000000000000000000000000000081526004016110e9906149be565b60405180910390fd5b6000600381111561110657611105613b6e565b5b8160030160019054906101000a900460ff16600381111561112a57611129613b6e565b5b1461116a576040517f08c379a000000000000000000000000000000000000000000000000000000000815260040161116190614a2a565b60405180910390fd5b6001600381111561117e5761117d613b6e565b5b83600381111561119157611190613b6e565b5b036112ed5760006111a58260020154611d1a565b905060008183600201546111b99190614687565b905081600660008282546111cd91906146bb565b9250508190555082600201548460030160008282546111ec9190614687565b9250508190555060018360030160006101000a81548160ff02191690831515021790555060018360030160016101000a81548160ff0219169083600381111561123857611237613b6e565b5b021790555060008773ffffffffffffffffffffffffffffffffffffffff168260405161126390614742565b60006040518083038185875af1925050503d80600081146112a0576040519150601f19603f3d011682016040523d82523d6000602084013e6112a5565b606091505b50509050806112e9576040517f08c379a00000000000000000000000000000000000000000000000000000000081526004016112e0906147a3565b60405180910390fd5b5050505b6002600381111561130157611300613b6e565b5b83600381111561131457611313613b6e565b5b036113645760018160030160006101000a81548160ff02191690831515021790555060028160030160016101000a81548160ff0219169083600381111561135e5761135d613b6e565b5b02179055505b60038081111561137757611376613b6e565b5b83600381111561138a57611389613b6e565b5b036113bd5760038160030160016101000a81548160ff021916908360038111156113b7576113b6613b6e565b5b02179055505b5050600160008190555050505050565b6113d5611989565b15611415576040517f08c379a000000000000000000000000000000000000000000000000000000000815260040161140c90614560565b60405180910390fd5b60003411611458576040517f08c379a000000000000000000000000000000000000000000000000000000000815260040161144f90614a96565b60405180910390fd5b61146260026136a8565b600061146e60026136be565b90506000600760008381526020019081526020016000209050818160000181905550848160010190805190602001906114a89291906138b2565b50838160020190805190602001906114c19291906138b2565b5034816003018190555060008160040160006101000a81548160ff021916908360058111156114f3576114f2613b6e565b5b0217905550338160040160016101000a81548173ffffffffffffffffffffffffffffffffffffffff021916908373ffffffffffffffffffffffffffffffffffffffff1602179055508281600601819055504281600701819055508160088560405161155e9190614af2565b908152602001604051809103902081905550600c60003373ffffffffffffffffffffffffffffffffffffffff1673ffffffffffffffffffffffffffffffffffffffff1681526020019081526020016000208290806001815401808255809150506001900390600052602060002001600090919091909150557f6b9e16af0371e88f9f98b1cadbbc8dc789d0a9080ea488bd2ae121fdb2e9531582868634334260405161160f96959493929190614b42565b60405180910390a15050505050565b60018054906101000a900473ffffffffffffffffffffffffffffffffffffffff1673ffffffffffffffffffffffffffffffffffffffff163373ffffffffffffffffffffffffffffffffffffffff16146116ac576040517f08c379a00000000000000000000000000000000000000000000000000000000081526004016116a3906148e6565b60405180910390fd5b6116b46136cc565b565b813373ffffffffffffffffffffffffffffffffffffffff166007600083815260200190815260200160002060040160019054906101000a900473ffffffffffffffffffffffffffffffffffffffff1673ffffffffffffffffffffffffffffffffffffffff161461175b576040517f08c379a000000000000000000000000000000000000000000000000000000000815260040161175290614bfd565b60405180910390fd5b82600060058111156117705761176f613b6e565b5b6007600083815260200190815260200160002060040160009054906101000a900460ff1660058111156117a6576117a5613b6e565b5b146117e6576040517f08c379a00000000000000000000000000000000000000000000000000000000081526004016117dd90614c69565b60405180910390fd5b6117ee611989565b1561182e576040517f08c379a000000000000000000000000000000000000000000000000000000000815260040161182590614560565b60405180910390fd5b6000600760008681526020019081526020016000209050838160050160006101000a81548173ffffffffffffffffffffffffffffffffffffffff021916908373ffffffffffffffffffffffffffffffffffffffff16021790555060018160040160006101000a81548160ff021916908360058111156118b0576118af613b6e565b5b0217905550600c60008573ffffffffffffffffffffffffffffffffffffffff1673ffffffffffffffffffffffffffffffffffffffff168152602001908152602001600020816000015490806001815401808255809150506001900390600052602060002001600090919091909150557ffe58e4bb1e9a69b912e9ef1be9463a03d5d7aa99d2116726abd48e28acc4f91e81600001548260040160019054906101000a900473ffffffffffffffffffffffffffffffffffffffff168660405161197a93929190614ce8565b60405180910390a15050505050565b6000600160009054906101000a900460ff16905090565b60018054906101000a900473ffffffffffffffffffffffffffffffffffffffff1673ffffffffffffffffffffffffffffffffffffffff163373ffffffffffffffffffffffffffffffffffffffff1614611a2e576040517f08c379a0000000000000000000000000000000000000000000000000000000008152600401611a25906148e6565b60405180910390fd5b611a36611989565b15611a76576040517f08c379a0000000000000000000000000000000000000000000000000000000008152600401611a6d90614560565b60405180910390fd5b60008211611ab9576040517f08c379a0000000000000000000000000000000000000000000000000000000008152600401611ab090614d6b565b60405180910390fd5b60008111611afc576040517f08c379a0000000000000000000000000000000000000000000000000000000008152600401611af390614dd7565b60405180910390fd5b81600481905550806005819055505050565b600b6020528260005260406000206020528160005260406000208181548110611b3657600080fd5b9060005260206000200160009250925050505481565b803373ffffffffffffffffffffffffffffffffffffffff166007600083815260200190815260200160002060040160019054906101000a900473ffffffffffffffffffffffffffffffffffffffff1673ffffffffffffffffffffffffffffffffffffffff1614611bf1576040517f08c379a0000000000000000000000000000000000000000000000000000000008152600401611be890614bfd565b60405180910390fd5b8160006005811115611c0657611c05613b6e565b5b6007600083815260200190815260200160002060040160009054906101000a900460ff166005811115611c3c57611c3b613b6e565b5b14611c7c576040517f08c379a0000000000000000000000000000000000000000000000000000000008152600401611c7390614c69565b60405180910390fd5b611c84611989565b15611cc4576040517f08c379a0000000000000000000000000000000000000000000000000000000008152600401611cbb90614560565b60405180910390fd5b600060076000858152602001908152602001600020905060038160040160006101000a81548160ff02191690836005811115611d0357611d02613b6e565b5b021790555050505050565b60045481565b60055481565b600060055460045483611d2d9190614df7565b611d379190614e80565b9050919050565b60065481565b60018054906101000a900473ffffffffffffffffffffffffffffffffffffffff1673ffffffffffffffffffffffffffffffffffffffff163373ffffffffffffffffffffffffffffffffffffffff1614611dd2576040517f08c379a0000000000000000000000000000000000000000000000000000000008152600401611dc9906148e6565b60405180910390fd5b600260005403611e17576040517f08c379a0000000000000000000000000000000000000000000000000000000008152600401611e0e906144f4565b60405180910390fd5b60026000819055506000600760008481526020019081526020016000209050600015158160090160009054906101000a900460ff16151514611e8e576040517f08c379a0000000000000000000000000000000000000000000000000000000008152600401611e8590614638565b60405180910390fd5b8381600301541015611ed5576040517f08c379a0000000000000000000000000000000000000000000000000000000008152600401611ecc90614efd565b60405180910390fd5b8173ffffffffffffffffffffffffffffffffffffffff168160040160019054906101000a900473ffffffffffffffffffffffffffffffffffffffff1673ffffffffffffffffffffffffffffffffffffffff161480611f8257508173ffffffffffffffffffffffffffffffffffffffff168160050160009054906101000a900473ffffffffffffffffffffffffffffffffffffffff1673ffffffffffffffffffffffffffffffffffffffff16145b611fc1576040517f08c379a0000000000000000000000000000000000000000000000000000000008152600401611fb890614f69565b60405180910390fd5b83816003016000828254611fd59190614687565b9250508190555060008273ffffffffffffffffffffffffffffffffffffffff168560405161200290614742565b60006040518083038185875af1925050503d806000811461203f576040519150601f19603f3d011682016040523d82523d6000602084013e612044565b606091505b5050905080612088576040517f08c379a000000000000000000000000000000000000000000000000000000000815260040161207f906147a3565b60405180910390fd5b50506001600081905550505050565b61209f613938565b600a60008381526020019081526020016000206040518060a00160405290816000820154815260200160018201548152602001600282015481526020016003820160009054906101000a900460ff161515151581526020016003820160019054906101000a900460ff16600381111561211b5761211a613b6e565b5b600381111561212d5761212c613b6e565b5b815250509050919050565b60018054906101000a900473ffffffffffffffffffffffffffffffffffffffff1673ffffffffffffffffffffffffffffffffffffffff163373ffffffffffffffffffffffffffffffffffffffff16146121c6576040517f08c379a00000000000000000000000000000000000000000000000000000000081526004016121bd906148e6565b60405180910390fd5b6121ce61376e565b565b8160006007600083815260200190815260200160002090508060040160019054906101000a900473ffffffffffffffffffffffffffffffffffffffff1673ffffffffffffffffffffffffffffffffffffffff163373ffffffffffffffffffffffffffffffffffffffff16148061229557508060050160009054906101000a900473ffffffffffffffffffffffffffffffffffffffff1673ffffffffffffffffffffffffffffffffffffffff163373ffffffffffffffffffffffffffffffffffffffff16145b6122d4576040517f08c379a00000000000000000000000000000000000000000000000000000000081526004016122cb90614f69565b60405180910390fd5b6000600760008681526020019081526020016000209050600015158160090160009054906101000a900460ff16151514612343576040517f08c379a000000000000000000000000000000000000000000000000000000000815260040161233a90614638565b60405180910390fd5b838160030154101561238a576040517f08c379a000000000000000000000000000000000000000000000000000000000815260040161238190614fd5565b60405180910390fd5b6000805b600b600088815260200190815260200160002060003373ffffffffffffffffffffffffffffffffffffffff1673ffffffffffffffffffffffffffffffffffffffff16815260200190815260200160002080549050811015612492576000600b600089815260200190815260200160002060003373ffffffffffffffffffffffffffffffffffffffff1673ffffffffffffffffffffffffffffffffffffffff168152602001908152602001600020828154811061244d5761244c6147c3565b5b90600052602060002001549050600a6000828152602001908152602001600020600201548361247c91906146bb565b925050808061248a90614852565b91505061238e565b50848183600301546124a49190614687565b10156124e5576040517f08c379a00000000000000000000000000000000000000000000000000000000081526004016124dc90614fd5565b60405180910390fd5b6124ef60036136a8565b60006124fb60036136be565b90506000600a6000838152602001908152602001600020905081816000018190555087816001018190555086816002018190555060008160030160006101000a81548160ff02191690831515021790555060008160030160016101000a81548160ff0219169083600381111561257457612573613b6e565b5b0217905550600b600089815260200190815260200160002060003373ffffffffffffffffffffffffffffffffffffffff1673ffffffffffffffffffffffffffffffffffffffff1681526020019081526020016000208290806001815401808255809150506001900390600052602060002001600090919091909150555050505050505050565b803373ffffffffffffffffffffffffffffffffffffffff166007600083815260200190815260200160002060040160019054906101000a900473ffffffffffffffffffffffffffffffffffffffff1673ffffffffffffffffffffffffffffffffffffffff161461269f576040517f08c379a000000000000000000000000000000000000000000000000000000000815260040161269690614bfd565b60405180910390fd5b6002600054036126e4576040517f08c379a00000000000000000000000000000000000000000000000000000000081526004016126db906144f4565b60405180910390fd5b60026000819055506126f4611989565b15612734576040517f08c379a000000000000000000000000000000000000000000000000000000000815260040161272b90614560565b60405180910390fd5b60006007600084815260200190815260200160002090506003600581111561275f5761275e613b6e565b5b8160040160009054906101000a900460ff16600581111561278357612782613b6e565b5b146127c3576040517f08c379a00000000000000000000000000000000000000000000000000000000081526004016127ba90615041565b60405180910390fd5b600015158160090160009054906101000a900460ff1615151461281b576040517f08c379a000000000000000000000000000000000000000000000000000000000815260040161281290614638565b60405180910390fd5b60008160030154905060018260090160006101000a81548160ff0219169083151502179055506000826003018190555060003373ffffffffffffffffffffffffffffffffffffffff168260405161287190614742565b60006040518083038185875af1925050503d80600081146128ae576040519150601f19603f3d011682016040523d82523d6000602084013e6128b3565b606091505b50509050806128f7576040517f08c379a00000000000000000000000000000000000000000000000000000000081526004016128ee906147a3565b60405180910390fd5b50505060016000819055505050565b60018054906101000a900473ffffffffffffffffffffffffffffffffffffffff1673ffffffffffffffffffffffffffffffffffffffff163373ffffffffffffffffffffffffffffffffffffffff1614612994576040517f08c379a000000000000000000000000000000000000000000000000000000000815260040161298b906148e6565b60405180910390fd5b6002600054036129d9576040517f08c379a00000000000000000000000000000000000000000000000000000000081526004016129d0906144f4565b60405180910390fd5b60026000819055506129e9611989565b15612a29576040517f08c379a0000000000000000000000000000000000000000000000000000000008152600401612a2090614560565b60405180910390fd5b60008111612a6c576040517f08c379a0000000000000000000000000000000000000000000000000000000008152600401612a63906150ad565b60405180910390fd5b806006541015612ab1576040517f08c379a0000000000000000000000000000000000000000000000000000000008152600401612aa890615119565b60405180910390fd5b8060066000828254612ac39190614687565b9250508190555060003373ffffffffffffffffffffffffffffffffffffffff1682604051612af090614742565b60006040518083038185875af1925050503d8060008114612b2d576040519150601f19603f3d011682016040523d82523d6000602084013e612b32565b606091505b5050905080612b76576040517f08c379a0000000000000000000000000000000000000000000000000000000008152600401612b6d906147a3565b60405180910390fd5b50600160008190555050565b600c6020528160005260406000208181548110612b9e57600080fd5b90600052602060002001600091509150505481565b612bbb613818565b600760008381526020019081526020016000206040518061016001604052908160008201548152602001600182018054612bf490614821565b80601f0160208091040260200160405190810160405280929190818152602001828054612c2090614821565b8015612c6d5780601f10612c4257610100808354040283529160200191612c6d565b820191906000526020600020905b815481529060010190602001808311612c5057829003601f168201915b50505050508152602001600282018054612c8690614821565b80601f0160208091040260200160405190810160405280929190818152602001828054612cb290614821565b8015612cff5780601f10612cd457610100808354040283529160200191612cff565b820191906000526020600020905b815481529060010190602001808311612ce257829003601f168201915b50505050508152602001600382015481526020016004820160009054906101000a900460ff166005811115612d3757612d36613b6e565b5b6005811115612d4957612d48613b6e565b5b81526020016004820160019054906101000a900473ffffffffffffffffffffffffffffffffffffffff1673ffffffffffffffffffffffffffffffffffffffff1673ffffffffffffffffffffffffffffffffffffffff1681526020016005820160009054906101000a900473ffffffffffffffffffffffffffffffffffffffff1673ffffffffffffffffffffffffffffffffffffffff1673ffffffffffffffffffffffffffffffffffffffff1681526020016006820154815260200160078201548152602001600882015481526020016009820160009054906101000a900460ff1615151515815250509050919050565b600d6020528160005260406000208181548110612e5557600080fd5b90600052602060002001600091509150505481565b612e72613818565b60076000600884604051612e869190614af2565b90815260200160405180910390205481526020019081526020016000206040518061016001604052908160008201548152602001600182018054612ec990614821565b80601f0160208091040260200160405190810160405280929190818152602001828054612ef590614821565b8015612f425780601f10612f1757610100808354040283529160200191612f42565b820191906000526020600020905b815481529060010190602001808311612f2557829003601f168201915b50505050508152602001600282018054612f5b90614821565b80601f0160208091040260200160405190810160405280929190818152602001828054612f8790614821565b8015612fd45780601f10612fa957610100808354040283529160200191612fd4565b820191906000526020600020905b815481529060010190602001808311612fb757829003601f168201915b50505050508152602001600382015481526020016004820160009054906101000a900460ff16600581111561300c5761300b613b6e565b5b600581111561301e5761301d613b6e565b5b81526020016004820160019054906101000a900473ffffffffffffffffffffffffffffffffffffffff1673ffffffffffffffffffffffffffffffffffffffff1673ffffffffffffffffffffffffffffffffffffffff1681526020016005820160009054906101000a900473ffffffffffffffffffffffffffffffffffffffff1673ffffffffffffffffffffffffffffffffffffffff1673ffffffffffffffffffffffffffffffffffffffff1681526020016006820154815260200160078201548152602001600882015481526020016009820160009054906101000a900460ff1615151515815250509050919050565b8060006007600083815260200190815260200160002090508060040160019054906101000a900473ffffffffffffffffffffffffffffffffffffffff1673ffffffffffffffffffffffffffffffffffffffff163373ffffffffffffffffffffffffffffffffffffffff1614806131d357508060050160009054906101000a900473ffffffffffffffffffffffffffffffffffffffff1673ffffffffffffffffffffffffffffffffffffffff163373ffffffffffffffffffffffffffffffffffffffff16145b613212576040517f08c379a000000000000000000000000000000000000000000000000000000000815260040161320990614f69565b60405180910390fd5b61321a611989565b1561325a576040517f08c379a000000000000000000000000000000000000000000000000000000000815260040161325190614560565b60405180910390fd5b60006007600085815260200190815260200160002090506002600581111561328557613284613b6e565b5b8160040160009054906101000a900460ff1660058111156132a9576132a8613b6e565b5b14806132ea5750600160058111156132c4576132c3613b6e565b5b8160040160009054906101000a900460ff1660058111156132e8576132e7613b6e565b5b145b613329576040517f08c379a000000000000000000000000000000000000000000000000000000000815260040161332090615185565b60405180910390fd5b600015156009600086815260200190815260200160002060003373ffffffffffffffffffffffffffffffffffffffff1673ffffffffffffffffffffffffffffffffffffffff16815260200190815260200160002060009054906101000a900460ff161515146133cd576040517f08c379a00000000000000000000000000000000000000000000000000000000081526004016133c4906151f1565b60405180910390fd5b60016009600086815260200190815260200160002060003373ffffffffffffffffffffffffffffffffffffffff1673ffffffffffffffffffffffffffffffffffffffff16815260200190815260200160002060006101000a81548160ff0219169083151502179055506009600085815260200190815260200160002060008260040160019054906101000a900473ffffffffffffffffffffffffffffffffffffffff1673ffffffffffffffffffffffffffffffffffffffff1673ffffffffffffffffffffffffffffffffffffffff16815260200190815260200160002060009054906101000a900460ff16801561354257506009600085815260200190815260200160002060008260050160009054906101000a900473ffffffffffffffffffffffffffffffffffffffff1673ffffffffffffffffffffffffffffffffffffffff1673ffffffffffffffffffffffffffffffffffffffff16815260200190815260200160002060009054906101000a900460ff165b1561357e5742816008018190555060058160040160006101000a81548160ff0219169083600581111561357857613577613b6e565b5b02179055505b50505050565b60018054906101000a900473ffffffffffffffffffffffffffffffffffffffff1673ffffffffffffffffffffffffffffffffffffffff163373ffffffffffffffffffffffffffffffffffffffff1614613612576040517f08c379a0000000000000000000000000000000000000000000000000000000008152600401613609906148e6565b60405180910390fd5b806001806101000a81548173ffffffffffffffffffffffffffffffffffffffff021916908373ffffffffffffffffffffffffffffffffffffffff16021790555050565b60018054906101000a900473ffffffffffffffffffffffffffffffffffffffff1681565b60096020528160005260406000206020528060005260406000206000915091509054906101000a900460ff1681565b6001816000016000828254019250508190555050565b600081600001549050919050565b6136d4611989565b15613714576040517f08c379a000000000000000000000000000000000000000000000000000000000815260040161370b90614560565b60405180910390fd5b60018060006101000a81548160ff0219169083151502179055507f62e78cea01bee320cd4e420270b5ea74000d11b0c9f74754ebdbfc544b05a258613757613810565b6040516137649190614410565b60405180910390a1565b613776611989565b6137b5576040517f08c379a00000000000000000000000000000000000000000000000000000000081526004016137ac9061525d565b60405180910390fd5b6000600160006101000a81548160ff0219169083151502179055507f5db9ee0a495bf2e6ff9c91a7834c1ba4fdd244a5e8aa4e537bd38aeae4b073aa6137f9613810565b6040516138069190614410565b60405180910390a1565b600033905090565b604051806101600160405280600081526020016060815260200160608152602001600081526020016000600581111561385457613853613b6e565b5b8152602001600073ffffffffffffffffffffffffffffffffffffffff168152602001600073ffffffffffffffffffffffffffffffffffffffff1681526020016000815260200160008152602001600081526020016000151581525090565b8280546138be90614821565b90600052602060002090601f0160209004810192826138e05760008555613927565b82601f106138f957805160ff1916838001178555613927565b82800160010185558215613927579182015b8281111561392657825182559160200191906001019061390b565b5b509050613934919061397b565b5090565b6040518060a001604052806000815260200160008152602001600081526020016000151581526020016000600381111561397557613974613b6e565b5b81525090565b5b8082111561399457600081600090555060010161397c565b5090565b6000604051905090565b600080fd5b600080fd5b6000819050919050565b6139bf816139ac565b81146139ca57600080fd5b50565b6000813590506139dc816139b6565b92915050565b6000602082840312156139f8576139f76139a2565b5b6000613a06848285016139cd565b91505092915050565b600073ffffffffffffffffffffffffffffffffffffffff82169050919050565b6000613a3a82613a0f565b9050919050565b613a4a81613a2f565b8114613a5557600080fd5b50565b600081359050613a6781613a41565b92915050565b600060208284031215613a8357613a826139a2565b5b6000613a9184828501613a58565b91505092915050565b600081519050919050565b600082825260208201905092915050565b6000819050602082019050919050565b613acf816139ac565b82525050565b600081519050919050565b600082825260208201905092915050565b60005b83811015613b0f578082015181840152602081019050613af4565b83811115613b1e576000848401525b50505050565b6000601f19601f8301169050919050565b6000613b4082613ad5565b613b4a8185613ae0565b9350613b5a818560208601613af1565b613b6381613b24565b840191505092915050565b7f4e487b7100000000000000000000000000000000000000000000000000000000600052602160045260246000fd5b60068110613bae57613bad613b6e565b5b50565b6000819050613bbf82613b9d565b919050565b6000613bcf82613bb1565b9050919050565b613bdf81613bc4565b82525050565b6000613bf082613a0f565b9050919050565b613c0081613be5565b82525050565b60008115159050919050565b613c1b81613c06565b82525050565b600061016083016000830151613c3a6000860182613ac6565b5060208301518482036020860152613c528282613b35565b91505060408301518482036040860152613c6c8282613b35565b9150506060830151613c816060860182613ac6565b506080830151613c946080860182613bd6565b5060a0830151613ca760a0860182613bf7565b5060c0830151613cba60c0860182613bf7565b5060e0830151613ccd60e0860182613ac6565b50610100830151613ce2610100860182613ac6565b50610120830151613cf7610120860182613ac6565b50610140830151613d0c610140860182613c12565b508091505092915050565b6000613d238383613c21565b905092915050565b6000602082019050919050565b6000613d4382613a9a565b613d4d8185613aa5565b935083602082028501613d5f85613ab6565b8060005b85811015613d9b5784840389528151613d7c8582613d17565b9450613d8783613d2b565b925060208a01995050600181019050613d63565b50829750879550505050505092915050565b60006020820190508181036000830152613dc78184613d38565b905092915050565b60048110613ddc57600080fd5b50565b600081359050613dee81613dcf565b92915050565b60008060008060808587031215613e0e57613e0d6139a2565b5b6000613e1c878288016139cd565b9450506020613e2d87828801613a58565b9350506040613e3e878288016139cd565b9250506060613e4f87828801613ddf565b91505092959194509250565b600080fd5b600080fd5b7f4e487b7100000000000000000000000000000000000000000000000000000000600052604160045260246000fd5b613e9d82613b24565b810181811067ffffffffffffffff82111715613ebc57613ebb613e65565b5b80604052505050565b6000613ecf613998565b9050613edb8282613e94565b919050565b600067ffffffffffffffff821115613efb57613efa613e65565b5b613f0482613b24565b9050602081019050919050565b82818337600083830152505050565b6000613f33613f2e84613ee0565b613ec5565b905082815260208101848484011115613f4f57613f4e613e60565b5b613f5a848285613f11565b509392505050565b600082601f830112613f7757613f76613e5b565b5b8135613f87848260208601613f20565b91505092915050565b600080600060608486031215613fa957613fa86139a2565b5b600084013567ffffffffffffffff811115613fc757613fc66139a7565b5b613fd386828701613f62565b935050602084013567ffffffffffffffff811115613ff457613ff36139a7565b5b61400086828701613f62565b9250506040614011868287016139cd565b9150509250925092565b60008060408385031215614032576140316139a2565b5b6000614040858286016139cd565b925050602061405185828601613a58565b9150509250929050565b61406481613c06565b82525050565b600060208201905061407f600083018461405b565b92915050565b6000806040838503121561409c5761409b6139a2565b5b60006140aa858286016139cd565b92505060206140bb858286016139cd565b9150509250929050565b6000806000606084860312156140de576140dd6139a2565b5b60006140ec868287016139cd565b93505060206140fd86828701613a58565b925050604061410e868287016139cd565b9150509250925092565b614121816139ac565b82525050565b600060208201905061413c6000830184614118565b92915050565b60008060006060848603121561415b5761415a6139a2565b5b6000614169868287016139cd565b935050602061417a868287016139cd565b925050604061418b86828701613a58565b9150509250925092565b600481106141a6576141a5613b6e565b5b50565b60008190506141b782614195565b919050565b60006141c7826141a9565b9050919050565b6141d7816141bc565b82525050565b60a0820160008201516141f36000850182613ac6565b5060208201516142066020850182613ac6565b5060408201516142196040850182613ac6565b50606082015161422c6060850182613c12565b50608082015161423f60808501826141ce565b50505050565b600060a08201905061425a60008301846141dd565b92915050565b60008060408385031215614277576142766139a2565b5b600061428585828601613a58565b9250506020614296858286016139cd565b9150509250929050565b6000610160830160008301516142b96000860182613ac6565b50602083015184820360208601526142d18282613b35565b915050604083015184820360408601526142eb8282613b35565b91505060608301516143006060860182613ac6565b5060808301516143136080860182613bd6565b5060a083015161432660a0860182613bf7565b5060c083015161433960c0860182613bf7565b5060e083015161434c60e0860182613ac6565b50610100830151614361610100860182613ac6565b50610120830151614376610120860182613ac6565b5061014083015161438b610140860182613c12565b508091505092915050565b600060208201905081810360008301526143b081846142a0565b905092915050565b6000602082840312156143ce576143cd6139a2565b5b600082013567ffffffffffffffff8111156143ec576143eb6139a7565b5b6143f884828501613f62565b91505092915050565b61440a81613a2f565b82525050565b60006020820190506144256000830184614401565b92915050565b600082825260208201905092915050565b7f6f6e6c79207461736b2061737369676e65650000000000000000000000000000600082015250565b600061447260128361442b565b915061447d8261443c565b602082019050919050565b600060208201905081810360008301526144a181614465565b9050919050565b7f5265656e7472616e637947756172643a207265656e7472616e742063616c6c00600082015250565b60006144de601f8361442b565b91506144e9826144a8565b602082019050919050565b6000602082019050818103600083015261450d816144d1565b9050919050565b7f5061757361626c653a2070617573656400000000000000000000000000000000600082015250565b600061454a60108361442b565b915061455582614514565b602082019050919050565b600060208201905081810360008301526145798161453d565b9050919050565b7f7461736b206d75737420626520636f6d706c6574656400000000000000000000600082015250565b60006145b660168361442b565b91506145c182614580565b602082019050919050565b600060208201905081810360008301526145e5816145a9565b9050919050565b7f7461736b20616c72656164792070616964000000000000000000000000000000600082015250565b600061462260118361442b565b915061462d826145ec565b602082019050919050565b6000602082019050818103600083015261465181614615565b9050919050565b7f4e487b7100000000000000000000000000000000000000000000000000000000600052601160045260246000fd5b6000614692826139ac565b915061469d836139ac565b9250828210156146b0576146af614658565b5b828203905092915050565b60006146c6826139ac565b91506146d1836139ac565b9250827fffffffffffffffffffffffffffffffffffffffffffffffffffffffffffffffff0382111561470657614705614658565b5b828201905092915050565b600081905092915050565b50565b600061472c600083614711565b91506147378261471c565b600082019050919050565b600061474d8261471f565b9150819050919050565b7f5472616e73666572206661696c65642100000000000000000000000000000000600082015250565b600061478d60108361442b565b915061479882614757565b602082019050919050565b600060208201905081810360008301526147bc81614780565b9050919050565b7f4e487b7100000000000000000000000000000000000000000000000000000000600052603260045260246000fd5b7f4e487b7100000000000000000000000000000000000000000000000000000000600052602260045260246000fd5b6000600282049050600182168061483957607f821691505b60208210810361484c5761484b6147f2565b5b50919050565b600061485d826139ac565b91507fffffffffffffffffffffffffffffffffffffffffffffffffffffffffffffffff820361488f5761488e614658565b5b600182019050919050565b7f6f6e6c792061646d696e20616c6c6f7765640000000000000000000000000000600082015250565b60006148d060128361442b565b91506148db8261489a565b602082019050919050565b600060208201905081810360008301526148ff816148c3565b9050919050565b7f7265736f6c766520666f72206f6e6c79207461736b206d656d62657273000000600082015250565b600061493c601d8361442b565b915061494782614906565b602082019050919050565b6000602082019050818103600083015261496b8161492f565b9050919050565b7f616c7265616479207265736f6c76656400000000000000000000000000000000600082015250565b60006149a860108361442b565b91506149b382614972565b602082019050919050565b600060208201905081810360008301526149d78161499b565b9050919050565b7f6f6e6c79206f70656e20636c61696d7300000000000000000000000000000000600082015250565b6000614a1460108361442b565b9150614a1f826149de565b602082019050919050565b60006020820190508181036000830152614a4381614a07565b9050919050565b7f7265776172642063616e2774206265207a65726f000000000000000000000000600082015250565b6000614a8060148361442b565b9150614a8b82614a4a565b602082019050919050565b60006020820190508181036000830152614aaf81614a73565b9050919050565b600081905092915050565b6000614acc82613ad5565b614ad68185614ab6565b9350614ae6818560208601613af1565b80840191505092915050565b6000614afe8284614ac1565b915081905092915050565b6000614b1482613ad5565b614b1e818561442b565b9350614b2e818560208601613af1565b614b3781613b24565b840191505092915050565b600060c082019050614b576000830189614118565b8181036020830152614b698188614b09565b90508181036040830152614b7d8187614b09565b9050614b8c6060830186614118565b614b996080830185614401565b614ba660a0830184614118565b979650505050505050565b7f6f6e6c79207461736b206f776e65720000000000000000000000000000000000600082015250565b6000614be7600f8361442b565b9150614bf282614bb1565b602082019050919050565b60006020820190508181036000830152614c1681614bda565b9050919050565b7f6f6e6c79206e6577207461736b73000000000000000000000000000000000000600082015250565b6000614c53600e8361442b565b9150614c5e82614c1d565b602082019050919050565b60006020820190508181036000830152614c8281614c46565b9050919050565b6000819050919050565b6000614cae614ca9614ca484613a0f565b614c89565b613a0f565b9050919050565b6000614cc082614c93565b9050919050565b6000614cd282614cb5565b9050919050565b614ce281614cc7565b82525050565b6000606082019050614cfd6000830186614118565b614d0a6020830185614cd9565b614d176040830184614401565b949350505050565b7f6665652070657263656e7420696e76616c696400000000000000000000000000600082015250565b6000614d5560138361442b565b9150614d6082614d1f565b602082019050919050565b60006020820190508181036000830152614d8481614d48565b9050919050565b7f666565206261736520696e76616c696400000000000000000000000000000000600082015250565b6000614dc160108361442b565b9150614dcc82614d8b565b602082019050919050565b60006020820190508181036000830152614df081614db4565b9050919050565b6000614e02826139ac565b9150614e0d836139ac565b9250817fffffffffffffffffffffffffffffffffffffffffffffffffffffffffffffffff0483118215151615614e4657614e45614658565b5b828202905092915050565b7f4e487b7100000000000000000000000000000000000000000000000000000000600052601260045260246000fd5b6000614e8b826139ac565b9150614e96836139ac565b925082614ea657614ea5614e51565b5b828204905092915050565b7f726566756e6420697320746f6f206c6172676500000000000000000000000000600082015250565b6000614ee760138361442b565b9150614ef282614eb1565b602082019050919050565b60006020820190508181036000830152614f1681614eda565b9050919050565b7f6f6e6c79207461736b206d656d62657273000000000000000000000000000000600082015250565b6000614f5360118361442b565b9150614f5e82614f1d565b602082019050919050565b60006020820190508181036000830152614f8281614f46565b9050919050565b7f636c61696d20746f206869676800000000000000000000000000000000000000600082015250565b6000614fbf600d8361442b565b9150614fca82614f89565b602082019050919050565b60006020820190508181036000830152614fee81614fb2565b9050919050565b7f7461736b206d7573742062652063616e63656c6c656400000000000000000000600082015250565b600061502b60168361442b565b915061503682614ff5565b602082019050919050565b6000602082019050818103600083015261505a8161501e565b9050919050565b7f6d757374206769766520616e20616d6f756e7400000000000000000000000000600082015250565b600061509760138361442b565b91506150a282615061565b602082019050919050565b600060208201905081810360008301526150c68161508a565b9050919050565b7f616d6f756e7420746f6f206c6172676500000000000000000000000000000000600082015250565b600061510360108361442b565b915061510e826150cd565b602082019050919050565b60006020820190508181036000830152615132816150f6565b9050919050565b7f7461736b206d75737420626520696e2070726f67726573730000000000000000600082015250565b600061516f60188361442b565b915061517a82615139565b602082019050919050565b6000602082019050818103600083015261519e81615162565b9050919050565b7f636f6d706c6574696f6e20616c72656164792072657175657374656400000000600082015250565b60006151db601c8361442b565b91506151e6826151a5565b602082019050919050565b6000602082019050818103600083015261520a816151ce565b9050919050565b7f5061757361626c653a206e6f7420706175736564000000000000000000000000600082015250565b600061524760148361442b565b915061525282615211565b602082019050919050565b600060208201905081810360008301526152768161523a565b905091905056fea2646970667358221220806d42886503398b8c178fd417aa1b069ef618da9c70072e1636a275fac8993d64736f6c634300080d0033",
  "linkReferences": {},
  "deployedLinkReferences": {}
}